:10000000FDC1000018C2000016C2000014C20000AA
:1000100012C2000010C200000EC200000CC200009C
:100020000AC2000008C200000C94AB240C9478258E
:100030000C94911F00C20000FEC10000FCC1000032
:10004000FAC10000F8C10000F6C10000F4C10000D0
:10005000F2C100000C940820EEC10000ECC10000C9
:10006000EAC10000E8C10000E6C10000E4C10000F0
:10007000E2C10000E0C10000DEC10000DCC1000000
:10008000DAC10000D8C10000D6C10000D4C1000010
:10009000D2C10000D0C10000CEC10000CCC1000020
:1000A000CAC10000C8C10000C6C100007777772E22
:1000B00063616E697573657669612E636F6D00A902
:1000C00000AA004000A800A900AA004000A800A9BA
:1000D00000AA004000A800A900AA004000A80054FF
:1000E000005F0060006100000055005C005D005E84
:1000F000000152560059005A005B0002525700623C
:1001000000630058000352070004000500060000C9
:10011000520B00080009000A0000000F000C000D3F
:10012000000E0002521300100011001200035215BD
:100130000014001A00080000520C0017001C0018E0
:100140000001523000120013002F0000003800336D
:10015000003400310003523D003A003B003C0000F7
:100160005241003E003F0040000152450042004322
:1001700000440002524E004A004D004B00000000B7
:10018000000000000000002A2B28000000000000F2
:100190000000000000000000000029000000002C0A
:1001A0001E3420212224342627252E362D373827A9
:1001B0001E1F202122232425263333362E37381FB5
:1001C0000405060708090A0B0C0D0E0F1011121377
:1001D0001415161718191A1B1C1D2F3130232D3515
:1001E0000405060708090A0B0C0D0E0F1011121357
:1001F0001415161718191A1B1C1D2F3130354C00F9
:1002000000000000000000000000000000000000EE
:1002100000000000000000000000000000000000DE
:100220000000007E0F00D4FFFFFFC7000000781A17
:10023000036D0061006E0061006E005F00350078A4
:100240000034005F00760031000000220353007587
:10025000006400610072007300680061006E00209D
:10026000005300680065006E006F00790000000414
:1002700003090409025B00030100A0FA090400005D
:1002800001030101000921110100012244000705B9
:100290008103080001090401000203000000092194
:1002A0001101000122220007058203200001070539
:1002B00003032000010904020001030000000921DA
:1002C0001101000122B6000705840320000112017C
:1002D000000200000008504D03000001010200016F
:1002E0000660FF0961A1010962150026FF00952043
:1002F000750881020963150026FF00952075089195
:1003000002C005010902A10185020901A100050938
:1003100019012908150025019508750181020501BB
:10032000093009311581257F950275088106093844
:100330001581257F950175088106050C0A3802157F
:1003400081257F950175088106C0C005010980A13E
:1003500001850319012AB700150126B7009501751B
:10036000108100C0050C0901A101850419012AA012
:1003700002150126A002950175108100C005010932
:1003800006A1018506050719E029E7150025019555
:1003900008750181020507190029EF15002501954F
:1003A000F07501810205081901290595057501916E
:1003B00002950175039101C005010906A101050718
:1003C00019E029E7150025019508750181029501BD
:1003D000750881010507190029FF150026FF009502
:1003E00006750881000508190129051500250195E4
:1003F0000575019102950175039101C011241FBE7D
:10040000CFEFDAE0DEBFCDBF11E0A0E0B1E0E6E67D
:10041000F0E502C005900D92AE3BB107D9F722E09E
:10042000AEEBB1E001C01D92A33DB207E1F70E941F
:100430007D110C94DD27E4CD819A849A859A869A61
:1004400089988C988D988E9887988F9856985E9AF0
:100450008098889A0895CF93C82F89988C988D9802
:100460008E9827D2813059F0882339F0823049F0B4
:10047000833049F08C2FCF910895899AFBCF8C9AC5
:10048000F9CF8D9AF7CF8E9AF5CF83EE91D285E191
:100490008FD285E1D2D283EED0D22FEF81EE94E0DD
:1004A000215080409040E1F700C0000060E08CEAFD
:1004B00090E00E94BA1A2FEF81EE94E02150804024
:1004C0009040E1F700C0000088E272D288E2B5C235
:1004D00080EE6ED28DE16CD28DE1AFD280EEADC2F6
:1004E00080EE66D28CE164D28CE1A7D280EEA5C208
:1004F00083EE5ED28FE05CD28FE09FD283EE9DC20E
:10050000CF92DF92EF92FF92CF93CFB10E94FC1F68
:100510006B017C018091C901C7FF42C0811119C0E4
:100520008091C5019091C601A091C701B091C80109
:10053000A7019601281B390B4A0B5B0BDA01C90195
:100540000697A105B10528F08CE232D281E08093B4
:10055000C9018091DC01ADD19091C4014E9947C091
:10056000911118C04091C0015091C1016091C20128
:100570007091C301C41AD50AE60AF70A36E0C31619
:10058000D104E104F10430F0811125C07EDF81E067
:100590008093C401CF91FF90EF90DF90CF900895AA
:1005A0008823B9F28091C5019091C601A091C7013D
:1005B000B091C801A7019601281B390B4A0B5B0BB0
:1005C000DA01C9010697A105B10518F28CE235D20E
:1005D0001092C901BECF813011F47ADFD8CF8230BA
:1005E00011F47EDFD4CF833091F682DFD0CF992310
:1005F00089F28091C0019091C101A091C201B09196
:10060000C301C81AD90AEA0AFB0A46E0C416D10493
:10061000E104F10408F4BECF1092C401BBCF8430D2
:10062000B8F46430A8F4453098F450E095E0699F40
:10063000400D511D1124FA0194E1899FE00DF11D37
:100640001124EE0FFF1FE152FF4F85919491089501
:1006500081E090E008958430B8F46230A8F4E82F87
:10066000F0E0EE0FFF1F6E0F7F2F711D660F771FDB
:10067000E1E0E427E60FF72FF11DEE0FFF1FE15435
:10068000FF4F85919491089581E090E0089581E075
:100690000895FDCF0895FBCF089581E00895F7CF29
:1006A0000895F5CF0895FDCF089508950895FDCFDD
:1006B000089508950895A6E0B0E0E1E6F3E00C9413
:1006C000412749835A839E833091CF0189819A8142
:1006D000311117C03E81332389F0222379F017D5D9
:1006E000182F682F89819A81E2D469817A81812FBC
:1006F0000E94E40E2696E3E00C945D27F1D4182FB7
:10070000F4CF05D569817A81F3CFFC01262F408192
:1007100051816281738184819581CDCFCF93DF93A5
:10072000EC0161E0F2DFBE01B4DF882349F061E053
:10073000CE01EBDFBE01AFDF8170DF91CF91089575
:1007400080E0FACF0F931F93CF93DF93EC0160E02B
:10075000DCDF8C01BE01AADFBE01C801A8DFDF918A
:10076000CF911F910F91089591E001C0990F8A9543
:10077000EAF7892FFCC3CF93C82F81E00C2E01C06C
:10078000880F0A94EAF70E94DE0C8C2FEDDFCF91E0
:10079000089581E00895FDCF0895FBCF0895CF938C
:1007A000C82F9FD38C2FF7DF8C2FF7DF2FEF84E339
:1007B0009CE0215080409040E1F700C00000CF91C4
:1007C000089581E0ECDF0C942C2080E0E8DF0C94AD
:1007D0003D200F931F93CF93DF938C0161E095DF52
:1007E000EC01B8015CDF811106C080E0DF91CF91A0
:1007F0001F910F910895B801CE0155DF8823A9F309
:10080000B801CE010E94001C882379F3B801CE0103
:100810000E942F1B882349F3B801CE010E945B166A
:10082000882319F3B801CE010E9431168823E9F21A
:10083000B801CE010E94721B8823B9F2B801CE0123
:100840000E94EE0F882389F2F8018581882361F0E8
:10085000C330FCE7DF07D9F050F4C115ECE7DE0741
:10086000A1F0C130DC47A9F0C80117DFBFCFCB35FD
:100870008CE7D80799F0CC35ECE7DE0761F0CA3594
:10088000DC4791F70E94A50CEFCF9BDFAECF0E9413
:10089000D30C9BDFAACF0E949D0CE6CF0E94A70C31
:1008A000E3CF07DF0E94691F28C029D003DF0C9423
:1008B0006D1F982F92959F7011F0892F94E0282F2B
:1008C0002695269511F09E5F822F869509F09F5FF1
:1008D000892F089581E008950895CF93DF93D82F4D
:1008E000F9DFC82F882311F08D2FF6DF8C2FDF91D1
:1008F000CF9108950895F1CF089580E0FCCF0E9434
:100900004F1DF9CFCF930E944F1DC82F8091CA0170
:100910008C1771F0C093CA010E94FC1F6093CB0139
:100920007093CC018093CD019093CE018C2FE3DFA7
:10093000CF910895ADE0B0E0E0EAF4E00C944227F6
:10094000488759876A877B878C879D87911120D735
:100950001F8286E0FE013896DE01119601900D920D
:100960008A95E1F78D8181110CC029813A814B81F3
:100970005C816D817E818F815BD62D96E2E00C9447
:100980005E27CE010196CADE8111EFCFF6CFFC01C2
:100990002481213019F480819181E5C30895662373
:1009A00021F00E94B8170C9483180E940A18FBCFFC
:1009B000CF93C82F882389F08CEF8C0F813A78F47D
:1009C0008C2F0E940B1E882321F08C2F0E94AD1EBD
:1009D0006AD78C2F0E94961E66D7CF91089580E229
:1009E0008C0F883040F4C77081E001C0880FCA9531
:1009F000EAF7B1D6F1CFEBE5EC0FE33040F4F0E0ED
:100A0000EB5AFE4F808190E00E948F1DE6CFE8E513
:100A1000EC0FEB3150F4F0E0EE0FFF1FE15EFE4F04
:100A2000808191810E94B61DD8CF83E38C0F8331E2
:100A3000A0F661E08C2FB3DFD0CF882351F19CEF7B
:100A4000980F913A18F40E94AD1E2DC790E2980FAE
:100A5000983048F4877091E001C0990F8A95EAF7C1
:100A6000892F7FD6F2CF9BE5980F933020F490E04A
:100A700080E00C948F1D98E5980F9B3120F490E056
:100A800080E00C94B61D93E3980F933110F460E06E
:100A900086CF08951F93CF93DF93182FEB0188DF44
:100AA000209731F4812FC9DFDF91CF911F910895F5
:100AB0008FE99FE00197F1F700C000002197F0CF88
:100AC00070E060E0893311F460E570E0E3CF8823E3
:100AD00011F041D6E8C60895882311F042D6E3C646
:100AE0000895B0E0A0E0E7E7F5E00C943B276C0147
:100AF000D62FC72FFC011581068102950F7021D6D4
:100B0000E82E8823E9F0E12E1123D1F08C2F807F8D
:100B1000803461F080E28D0F8830F8F08C2F807E79
:100B2000803221F4D230C8F00023B9F08091B902AC
:100B300082FF13C082E0DBD604D691E0E82EE926DE
:100B4000BC2EB2949FE0B922FBE0FB1580F1EB2DA7
:100B5000F0E0E152F84D0C942527E12CF1CF0C2F59
:100B60000F70C07F11F00295007F112381F00023E8
:100B700049F080E28D0F883010F0D11105C0802F30
:100B8000EAD591D68D2F40C0802FF5D5FACF8D2F85
:100B900054DF002361F080E28D0F883010F0D11116
:100BA00003C0802FDED502C0802FEBD57CD6EB2D85
:100BB000E850FF0B349708F042C10E944F1D9BDEA6
:100BC000CDB7DEB7E9E00C9457272C2F2F70F22E0B
:100BD000C07FC03219F0F29480EFF822DD2341F09B
:100BE000D13081F1112309F439C00023C9F0CACFF3
:100BF0008091B90282FD10C0112341F0FF2019F04D
:100C00008F2DA9D550D680E0D3DED1CF80E015DF7F
:100C1000FF2069F28F2DC6CF112359F0011103C0B7
:100C20008F2D55DFC4CF013009F0C1CF8F2DC4D532
:100C3000BECF0111BCCF8F2D4FDF8F2DC8D58F2D8B
:100C4000ADD5B5CF112321F0063008F0B0CFE8CFF5
:100C5000053008F0ACCF8F2D3FDFA9CF0023D9F3AB
:100C6000D93349F43FEF87EE93E031508040904014
:100C7000E1F700C000008D2FE0DE99CF8C2F869524
:100C80008695837069F0813009F091CF8D2F9C2F6C
:100C90009370111102C080E090E00E94B61D87CFD2
:100CA0008D2F9C2F9370111102C080E090E00E9464
:100CB0008F1D7DCF612F8D2F72DE79CF8C2F8370AA
:100CC00059F5111174CF4D2F429546954770440F39
:100CD000440F8D2F8F70042E01C0880F0A94EAF7FD
:100CE0002D2F2071D4FF07C02FE030E001C0220F6C
:100CF0004A95EAF72095C695C695C370822BC230F7
:100D000039F040F4C13011F038D151CF32D14FCF4A
:100D100038D14DCF2CD14BCF8695112311F08C2F8C
:100D20008170882309F443CF4D2F42954695477033
:100D3000440F440F8D2F8F70042E01C0880F0A942A
:100D4000EAF72D2F2071D4FF07C02FE030E001C05B
:100D5000220F4A95EAF72095C695C695C370822B57
:100D6000C23039F040F4C13011F044D120CF3ED12F
:100D70001ECF44D11CCF0DD11ACFCF70112321F03B
:100D80008C2F15D18D2F4DCF8D2FA6DE8C2F19D105
:100D90000ECFD23F39F160F4D03FB9F0D13F81F0AE
:100DA000112309F43CC00111EDCE8C2F8F711EC0B0
:100DB000D33FF1F0D43FA1F78091B90282FD20C06A
:100DC0008C2F8F71112319F311C0112339F00530C5
:100DD00008F0EDCE8C2F8F71FFD0E9CE063008F0F1
:100DE000E6CEF8CF8C2F8F711111D1CFE0D0DFCEAE
:100DF000112321F08C2F8F71D3D0D9CECFD0D7CE65
:100E0000112329F063E08C2F8F715AD5D0CE81E069
:100E10006ED5023008F4CBCE82E069D5C8CE00236F
:100E200059F0D93309F027CFEFEFF7EE23E0E15087
:100E3000F0402040E1F71DCF8C2F8F71A8CFEE201E
:100E400009F4BECE7AD480FDBBCEF60115826FD4F4
:100E5000AED0C60117D06BD4B4D0B2CE0F931F93CF
:100E6000CF93DF93EC01688179818D8185D18C01ED
:100E7000C9D07CD0B801CE0134DEDF91CF911F9173
:100E80000F910895CF93DF93EC018C81882381F03B
:100E9000CE019FDC81110FC054D4882349F08D818D
:100EA000882331F08091B90282FF02C082E01FD511
:100EB000DF91CF910895CE01D1DFCE0143DCF8CF91
:100EC00090E080E00E948F1D90E080E00E94B61DBF
:100ED0005FD4E9D40E949C180C9483180E94C41E0D
:100EE000EFCF46D4FBCF92959F70963091F058F497
:100EF000925F9F70923058F4803F19F030F4883E32
:100F000030F481E008959A5FF4CF843FD1F380E01C
:100F10000895883EB0F3813FD1F7F3CFFC012481DF
:100F2000222321F0808191811ED1DDCF80E00895C0
:100F3000A6E0B0E0EEE9F7E00C9442272696E2E066
:100F40000C945E27A7E0B0E0E8EAF7E00C944227B3
:100F50002796E2E00C945E270895FECF0895FDCF1A
:100F60000895FADFFCDF8093DD0108950895F9CF3D
:100F700008959091DD01892BF4CF9091DD018923B3
:100F8000F0CF9091DD018927ECCF65CA0895E4CFB9
:100F90000895FDDFFADF8093DC01089580E0F9CF4A
:100FA00091E001C0990F8A95EAF7892FF2CF21E0ED
:100FB00030E001C0220F8A95EAF78091DC01822B94
:100FC000E8CF21E030E001C0220F8A95EAF72095B2
:100FD0008091DC018223DDCF21E030E001C0220FCF
:100FE0008A95EAF78091DC018227D3CF9091DC01CA
:100FF000892BCFCF9091DC018923CBCF9091DC015D
:101000008927C7CF0895262F277091E001C0990F37
:101010002A95EAF723E0769567952A95E1F7FB0193
:10102000EE0FFF1FE60FF71FE40FF51F50E040E043
:10103000682F70E08191DF0111979B01042E02C09F
:10104000369527950A94E2F72170219528272923C0
:1010500028272C934F5F5F4F4330510559F7089570
:10106000A82FA77023E0969587952A95E1F7FC01B4
:10107000EE0FFF1FE80FF91FE60FF71F50E040E0EB
:1010800080E0219130E00A2E02C0369527950A941F
:10109000E2F721703327042E01C0220F0A94EAF7E9
:1010A000822B4F5F5F4F4330510559F70895282F2A
:1010B000862F943068F4253050F4622F70E025E0DC
:1010C000929F600D711D112443ED51E09CCF089556
:1010D0009C5F9230E0F7622F70E040ED51E0F6CF78
:1010E000292F943058F4853080F490E063ED71E05E
:1010F00035E0239F800D911D1124B2CF2C5F22304B
:1011000020F460ED71E090E0F8CF80E00895CF9298
:10111000DF92FF920F931F93CF93DF936C010091A7
:10112000DC018091DD01082BC3E0D0E010E0FC2E53
:10113000C8010C2E02C0959587950A94E2F780FDB0
:101140000CC02197A0F7F12C8F2DDF91CF911F912B
:101150000F91FF90DF90CF900895B6018C2F49D664
:10116000019779F3F1CFCF93DF93EC01D0DFBE018C
:1011700040D6DF91CF9108951F93CF93DF93EB017A
:101180009091CF01992331F0CB01EDDFDF91CF9129
:101190001F910895882351F0CB01B9DF182F682FD4
:1011A000CE0185DFBE01812F24D6F0CFCB0198DFA1
:1011B000182FF8CFE1E0F0E0DF0102C0AA0FBB1F5B
:1011C0006A95E2F7BD01DF0102C0AA0FBB1F4A9575
:1011D000E2F76A2B01C0EE0F2A95EAF7962F9823C3
:1011E000961302C08E2B0895E0958E230895242F28
:1011F000462F682F8091DC01DDDFCBCE1F93CF938C
:10120000DF93C091DE0117E08091DF018C1304C0F1
:10121000DF91CF911F910895D0E01C9FF0011D9F99
:10122000F00D1124E052FE4F208131814281538123
:1012300064817581868186DE2196C770E5CF209115
:1012400018023091190240911A0250911B026091CC
:101250001C0270911D0280911E0274CECF93DF9309
:1012600080911E02807F09F04BC080911D0288236F
:1012700009F446C0E091DE015091DF01C0911902EE
:10128000D091180260911A0270911B0247E05E171C
:10129000B9F18E2F90E0E49FF0011124E052FE4F4F
:1012A0002481222381F1489FF001499FF00D1124F0
:1012B000DF01A052BE4F11962C9111972C1323C021
:1012C0002C912D1320C015962C91159721111BC020
:1012D00012962D913C91261B370B283C310598F432
:1012E00080911E028F70806180931E02EA51FE4F32
:1012F00080818F708061808388E192E0C3DD7EDF32
:10130000DF91CF910895FC013196E770C0CF482F4F
:101310002091DE019091DF0157E0291302C080E0A7
:10132000089530E0529FF001539FF00D1124E052D8
:10133000FE4F8181681306C08081481303C08581F8
:101340008111EECF2F5F3F4F2770E7CFA4E1B0E0D0
:10135000ECEAF9E00C9438278C0186E0F801DE0114
:101360001F9601900D928A95E1F7F8018481E5803E
:1013700098E1A92E92E0B92E90911C0291111AC009
:101380008823A9F0EE2089F0C801C8DDF82E882353
:1013900061F087E0F801D50101900D928A95E1F79F
:1013A000C501F5DA5BDF4BDF59C0C8016BDDFF24F7
:1013B000F39454C0C080D18082809380F0901D024D
:1013C00020911A0230911B02A401421B530BFF20F3
:1013D00009F4E9C0483C510508F09CC0882309F491
:1013E0003DC09091190280911E02282F207F09F0A4
:1013F00056C09D1114C090911802C91210C0E1107E
:1014000048C08F70806180931E0219DF88E192E0EE
:1014100039DD80911E02F8018683F12C1FC0E11096
:1014200038C06D2D8C2D73DF6D2D8C2D70DFE82E67
:101430008111F3CFCF86D88A8F85988994DE292FA2
:1014400022952F70243078F49F702230A0F09923D9
:10145000B1F0F8019681907F91F4FE2C8F2D649667
:10146000ECE00C9454272A5F2F70223060F0C80102
:1014700009DDEF2CF2CF992311F0882371F3805E00
:10148000883058F3F4CF803F40F3815F833078F7A2
:10149000E4CF80911E02816080931E02BECF9D1119
:1014A00012C090911802C9120EC0E1100CC08683C0
:1014B000C801E8DC87E0F801A8E1B2E001900D92F4
:1014C0008A95E1F770CFC80129DD882309F46DCF33
:1014D000EE2009F46ACF80911E02803280F02091C4
:1014E000180230911902398728879B868A86909145
:1014F0001C029C871D868E87CE010896C3DC87E080
:10150000F801A8E1B2E001900D928A95E1F7A6DE1C
:1015100096DE4DCF90911E02292F207F89F4682DF1
:101520009A8A898AA6017A899E2D02DD88E192E055
:10153000A9DC87E0F50111928A95E9F780DE6DCF8D
:10154000882309F48BCF809119028D110FC08091EF
:101550001802C8120BC0E11009C09683C80192DCC2
:1015600087E0F50111928A95E9F778CFC801D6DCBA
:10157000882309F41ACFEE2009F417CF80911E02B8
:10158000803208F4BCCF20911802309119023A83BE
:1015900029839C828B8290911C029D831E828F8363
:1015A000CE010196ABCF483C5105A8F5882309F43C
:1015B000FECEFE2CEE2009F4F8CE809119028D119A
:1015C0001EC080911802C8121AC080911E0280FDB0
:1015D0000DC0982F907F51F08683903F09F468CF1B
:1015E000982F907F905F8F70892B61CF87E0F801F3
:1015F000A8E1B2E001900D928A95E1F72FCFC801E2
:101600008DDC81117CCF80911E02816080931E024F
:10161000C80138DC23CF682D9A8A898AA6017A8985
:101620009E2D86DC87E0F50111928A95E9F7BBCE05
:10163000AEE0B0E0EEE1FBE00C944127288739876B
:101640004A875B876C877D878E87CE0108967EDE12
:101650008823A9F06C85662339F0288539854A8569
:101660005B857D858E856EDC17E08091DE01909133
:10167000DF0189133BC02E96E3E00C945D2787E0E1
:10168000FE013896DE01119601900D928A95E1F7E0
:101690008C85882349F32091DF0130E0C901019650
:1016A000877099274091DE014817190691F097E05D
:1016B000929FD001939FB00D1124A052BE4FFE0106
:1016C000319601900D929A95E1F78093DF0196DDB6
:1016D000CBCF07DC1092DF011092DE0187E0E8E15A
:1016E000F2E0DF011D928A95E9F7BECF819FC0012C
:1016F000112480529E4F2ADE882309F4BCCFE0914A
:10170000DE011E9FF0011124E052FE4F2081318145
:101710004281538164817581868114DC8091DE0170
:1017200090E00196877099278093DE019ECF80918B
:101730004702869586958695089580914702877021
:10174000089590914702977081E009F480E0089530
:1017500080917302089590917302892B8093730294
:101760000895809590917302982390937302089541
:1017700010927302089590917202892B80937202E5
:101780000895809590917202982390937202089523
:101790001092720208950895FECF08959091480224
:1017A000292F282329F08095892380934802F4CF9C
:1017B00008950895FECF089590914902292F282376
:1017C000281721F0982B90934902F4CF0895909117
:1017D0004902292F282329F08095892380934902E3
:1017E000E9CF089580914902882321F0109249029F
:1017F00080E0E0CF0895CF93C09173028091720290
:10180000C82B80914902882329F0C82B0E94EA1D29
:101810008111E8DF8C2FCF910895CF93DF93C09192
:101820000201D0910301E7DF8883C0910201D091CA
:10183000030148E050E06FE372E0CE010E947D2793
:10184000892B59F088E0FE01AFE3B2E001900D92E0
:101850008A95E1F7CE010E945E1DDF91CF91089538
:10186000CF93DF93C0910001D0910101C4DF898340
:10187000C0910001D091010140E250E06FE172E0BF
:10188000CE010E947D27892B59F080E2FE01AFE155
:10189000B2E001900D928A95E1F7CE010E946B1D96
:1018A000DF91CF9108950E94481D882329F08091EF
:1018B000B80287FF01C0D4CFB0CF0895FECF0895FE
:1018C0009091B90292FF0EC098E0899F9001112477
:1018D000622B609347026BDB809147028695869569
:1018E0008695ECCF64CB1092470280E0E7CF9091D1
:1018F00047028095892380934702282F277059F447
:10190000891749F09091B90292FF05C08695869596
:10191000869557DBE8CF08959091B90292FB222774
:1019200020F9281749F080FB92F99093B90288EBCF
:1019300092E048D082E0DBCF08958091B90282FB2B
:10194000882780F991E08927E7CF81E0E5CF80E023
:10195000E3CF60E070E0CB019EC360E070E0CB01BC
:1019600094D3F7CFA3E0B0E0E8EBFCE00C9442277F
:1019700047D352D31B82CE01039665D381E0809377
:10198000DD016BD31A8219828A8184618A83CE0138
:10199000019674D30E94EB1BE0DF2396E2E00C94E7
:1019A0005E27E0CF08953EC308952BD381110C9498
:1019B000B11B08953DC308954CC308954EC30895C7
:1019C00051C308955BC308956CC30895A6E0B0E0C9
:1019D000ECEEFCE00C9440270E94F01F8C018091FB
:1019E0007402909175028017910781F019821A8212
:1019F0000E94F01F682F49815A81792F80E090E082
:101A00000E949A0410937502009374022696E4E0F3
:101A10000C945C270E94FC1F6093820270938302E7
:101A2000809384029093850260937E0270937F027C
:101A3000809380029093810208950E94FC1F60931E
:101A40008202709383028093840290938502609354
:101A50007A0270937B0280937C0290937D020895BA
:101A600008950895FDCF08950895FEDFFBCF0C94EF
:101A70001C0208950895FEDFFACF8CEE9FE050D44B
:101A8000F0DFF3CF81E00895FDCF0895FBCF0895F7
:101A9000089508950895FCDFFCDFFCCF86DF8111F7
:101AA00001C07FDF86E892E085DF88EB92E088DF87
:101AB000E8D582DF5CDA8091DC0167CA0E94E71F0B
:101AC0000E94F71B37D491D3E9DF0E947A04D3CF69
:101AD000A6E0B0E0EEE6FDE00C943927D5DF8111F9
:101AE0000CC074DF87D48111A8DF0E94BE180E9449
:101AF00082042696EBE00C94552789D386E7A82E1E
:101B000082E0B82E750110E0F70101917F01812F6D
:101B1000D3D21F5F143009F43DC00817A9F3809198
:101B2000860281FDCFD2B2DFC82E10E099249394B3
:101B3000812FC2D2082FF50181915F01081729F189
:101B4000D02ED826F12CEE24E3948D2D8E21A9F0F1
:101B5000CC2099F0F9821A830E94F01F9C838B831A
:101B60009D8291E0802F8E2109F490E049815A8175
:101B70006B817C818D810E949A04F394EE0CF5E0D8
:101B8000FF12E3CFF501319700831F5F143081F618
:101B900041DFA8CF0813C3CFA4CF1F93CF93DF9308
:101BA0002AD1EC01C11580E5D807F0F5C11580E414
:101BB000D80708F09AC0C03ED10520F5CD3CD1052C
:101BC00008F082C0C83AD10578F4C53AD10508F0CA
:101BD00073C0C130D10519F1209709F1C430D10586
:101BE000F0F4D0E0C0E01BC0C33CD105D0F7C85A28
:101BF000D0E0CC0FDD1FC85ADE4F0990D881C02D30
:101C0000D4640DC0C11580E2D80708F0CDC0C1155D
:101C100081E0D80708F05AC0C83ED10510F7CE01C0
:101C2000DF91CF911F910895C03682E5D80718F54E
:101C3000C03482E5D80708F068C0C03282E5D80712
:101C400008F05CC0C11582E5D80708F493C02C2FBA
:101C50002695269580E2289F900111248C2F837071
:101C6000C1E0D0E002C0CC0FDD1F8A95E2F7C22BA5
:101C7000D32BDD68D4CFC03A82E5D80760F4C038F2
:101C800082E5D80708F456C0CF71D0E0DC2FCC270E
:101C9000C46FD06AC4CFC03C82E5D80708F45FC0E7
:101CA000C03E82E5D80708F09CCFDC2FCC27CC279C
:101CB000DF71C06FD06AB3CFC55AD0E0C257DE4FD4
:101CC000C881D0E0D064ABCFD065A9CF8D2F35D1FE
:101CD000182FCE0199278FD0C12FD0E0DC2FCC2731
:101CE000CC27DF71C82BD92B9ACFCE01992783D06F
:101CF000CC27DF70C82BD92BD06A91CFCF71D0E021
:101D0000DC2FCC27C16FD06A8ACF2C2F2695269541
:101D1000277080E2289F900111248C2F8370C1E0EE
:101D2000D0E002C0CC0FDD1F8A95E2F7C22BD32B87
:101D3000DC6875CF2C2F26952695277080E2289F8A
:101D4000900111248C2F8370C1E0D0E002C0CC0F31
:101D5000DD1F8A95E2F7C22BD32BDA6860CF8C2F78
:101D60008F71EBD0C82FD0E0DC2FCC27CC27DF71D0
:101D7000D06255CF8C2F8F71E0D055E0D695C795A6
:101D80005A95E1F7CF70D0E0DC2FCC27282F30E038
:101D900084FF06C044E0220F331F4A95E1F7332742
:101DA000C22BD32BD0693BCF8D2F8F71C6D0182F6C
:101DB000CE01992720D0C12FD0E0DC2FCC27CC2713
:101DC000DF71C82BD92BD4CF743028F4653040F4A0
:101DD000462F672FDAC47D3F31F441E0623040F096
:101DE00090E080E008957C3FD9F76230C8F740E08A
:101DF000D6C4EADFD2CE82389105B9F1B0F481338E
:101E0000910509F47DC048F48932910509F46DC04B
:101E10008A32910509F47BC008958533910509F450
:101E20005FC08933910509F10895833E9105D9F189
:101E300038F4803E910529F1823E910579F10895AB
:101E4000863E9105D9F1873E910509F43EC0843E56
:101E5000910541F52091B90221FF24C08091B8027B
:101E600084FD19C087EE90E008952091B802237098
:101E700009F05AC02091B90223FF14C089E290E012
:101E800008952091B80220FD38C03091B90230FF8A
:101E900009C024FF43C090E080E008952091B8027B
:101EA00022FDF7CF08952091B80222FD3AC030916B
:101EB000B90230FD39C024FFF5CFEDCF2091B80233
:101EC00023FFF0CF24FDE7CFCDCF2091B80223FD33
:101ED0002EC03091B90231FFEECF84EE90E008952C
:101EE0002091B80225FFDECFC9CF2091B80225FD91
:101EF00021C02091B90223FFD5CF89E390E0D2CF52
:101F00002091B80226FFCECF8AE290E0089520917A
:101F1000B80226FFC7CF81E390E0089583EE90E0FA
:101F2000089582EE90E0089580EE90E0089586EEA8
:101F300090E0089585E390E008959091B80292FFB3
:101F400010C041E0282F2471243009F040E031E036
:101F5000282F2871283009F030E0431711F02CE0C9
:101F6000822793FF10C041E0282F2471243109F00B
:101F700040E031E0282F2871283109F030E0431784
:101F800011F02CE082273091B90230FF10C051E0EF
:101F9000282F2171213009F050E041E0282F2871CD
:101FA000283009F040E0541711F029E0822731FF72
:101FB00010C041E0282F2171213109F040E031E0CB
:101FC000282F2871283109F030E0431711F029E05B
:101FD000822794FD877E089580E00895CF939C0129
:101FE000205E3245C1E02032310538F4FB01C58165
:101FF000C11103C08F710E94BB038C2FCF91089534
:10200000089590E080E00E949B2721E0833E9E4F50
:1020100009F020E0822F089563EE7EEF90E080E0EB
:102020000C94C9276FEF7FEF90E080E00C94C927F4
:10203000CF93DF93EC0182E090E00E9493278883A6
:10204000DF91CF910895FC01608182E090E00C94D3
:10205000AF2783E090E00C949327682F83E090E013
:102060000C94AF27CF93DF93EC0184E090E00E94C3
:102070009B2799838883DF91CF910895FC0160812C
:10208000718184E090E00C94C927AB01BC018FE022
:1020900090E00C94C127AB01BC0183E190E00C946B
:1020A000C127682F8EE090E00C94AF270895FECFF3
:1020B00008950C9480020895E82FF0E0E254FD4F5B
:1020C00080810895089580EA8A95F1F7089500C007
:1020D0000895F9CF0895F894E82FE295EF70F0E0B5
:1020E00031A1282F2F7081E090E001C0880F2A9540
:1020F000EAF7982F9095932391A392A1892B82A31D
:1021000078940895CF93DF9387E6E5DF80E9E3DFF6
:1021100081E9E1DF82E9DFDFC1E9D1E089918F3F29
:1021200009F0D9DF81E0C639D807C1F7DF91CF9137
:102130000895B0E0A0E0EFE9F0E10C943C27EC0159
:10214000D62E062F10E0C8018A569E4F7C01FC0156
:1021500080818F3F09F442C0F894E82FE295EF7038
:10216000F0E091A18F7021E030E001C0220F8A954C
:10217000EAF7892F822B81A382A12095282322A30D
:102180007894A5DFE1E9F1E046E951E031E0C12CC6
:1021900021912F3F41F1A22FA295AF70B0E0909610
:1021A0008C9190E02F7002C0959587952A95E2F763
:1021B00080FD19C0832FC82A330F4E175F0741F7E0
:1021C000F70180818F3F09F086DF61E0C11001C017
:1021D00060E08D2D7EDFC00FD11FC882CDB7DEB786
:1021E000E8E00C94582780E0E6CF8CDF84E0EEEB4B
:1021F000F2E0DF01982F1D929A95E9F7EAEBF2E001
:10220000DF011D928A95E9F784E03BD050CFA4E02E
:10221000B0E0EDE0F1E10C94412719821A821B82B3
:102220001C8210E0612FCE01019683DF1F5F143006
:10223000C9F744E050E0BE016F5F7F4F8AEB92E048
:102240000E947D2721E0009709F420E0892B61F0AE
:1022500089819A81AB81BC818093BA029093BB0241
:10226000A093BC02B093BD0244E06EEB72E08AEB37
:1022700092E008D0182F1DDF812F2496E3E00C9404
:102280005D270895B0E0A0E0E8E4F1E10C943C277C
:102290006C017B01042FC22F222379F081E080930F
:1022A00089020E94F01F909388028093870280E049
:1022B000CDB7DEB7E8E00C945827D0918902DD2332
:1022C000B1F380918702909188020E94811F059747
:1022D00070F310E0A801B601C7010E947D27892B89
:1022E00031F0A801B601C7010E948A27CD2F1092B4
:1022F00089028C2FDDCFECCB08950E948A1F0E94AB
:10230000AD21BBDB0E94C521D9DB0E94CE210E94FA
:10231000D121F1DF0E94E7210E949620BCDBF7CF9C
:102320009093BF018093BE0108950C94DD1D089524
:10233000A9CB0895EBE8F2E088E0DF011D928A95D1
:10234000E9F735C1FC01228130E02F5F3F4F237058
:102350003327938181E09217130609F080E00895F6
:102360000F931F93CF93DF93EC01162F042FEADF17
:10237000811117C08A81FE01E80FF11D1F7764816A
:102380006078612B00FB67F964838F5F83708A83B9
:1023900088818F5F888381E0DF91CF911F910F91BA
:1023A000089580E0F9CFFC01A38182818A17B1F002
:1023B000AE0FBF2FB11D14968C9187FB992790F912
:1023C0008F77DB018C93DA019C9383818F5F83701D
:1023D000838381818F5F818381E0089580E0089508
:1023E000462F682F8BE892E0BBCFAB01BC018BE896
:1023F00092E0D9CFAEE0B0E0E0E0F2E10C943B2710
:1024000080918A02882351F010928A0280918D0275
:1024100080938E0280918B0280938C0203D188DF9F
:10242000182F882309F43EC010E08CEFF82E93E0BB
:10243000E92EDD24D3942DEFC22E32E0B32E29C035
:102440001E858D85882399F10E94F01F1983CA8209
:102450009C838B83BD82DE8249815A816B817C8122
:102460008D819E810E949A048D851E85882339F175
:102470000E94F01F1F83C8869A878987BB861C86A7
:102480004F81588569857A858B859C850E949A0441
:10249000102FBE01635F7F4FCE010E96A6DF082F7F
:1024A0008111CECF812F2E96E9E00C9457270E9400
:1024B000F01F1983FA829C838B83ED82CCCF0E941C
:1024C000F01F1F83F8869A878987EB86D8CF8FE81D
:1024D00091E00197F1F700C00000089590E06623B5
:1024E000E9F086559E4FFC0180818F3FB1F0E82FC7
:1024F000E295EF70F0E041A18F7021E030E0B9018A
:1025000002C0660F771F8A95E2F7CB01962F909550
:10251000942391A392A1892B82A3089584559E4F61
:10252000E2CF90E06623A1F086559E4FFC0120810A
:102530002F3F89F0E22FE295EF70F0E080A190E06C
:102540002F7002C0959587952A95E2F781700895BE
:1025500084559E4FEBCF80E008950895CF93DF938D
:10256000C0E080919302C81750F0B1DFC0E08091C5
:102570009302C81760F0F1DFDF91CF91089560E01A
:102580008C2FACDF61E08C2FA9DFCF5FEACF60E05A
:102590008C2FC7DFD82F61E08C2FC3DFEC2FF0E04A
:1025A000EA56FD4F880F8D2B8083CF5FE0CF82E00E
:1025B00080939302D3CF1F93CF93DF93182FE42FF1
:1025C000EE0F6E2BC82FD0E0DE01AA56BD4FEC9166
:1025D0008E2F8370681711F1EE0FEE0FE62BEC9340
:1025E000EF70F0E0E656FE4FCC56DD4F80819881CB
:1025F000890F888384301CF060E0812FF1DE8881B0
:102600008D3F1CF461E0812FEBDE8881082E000CE9
:10261000990B64E070E00E9412278883DF91CF91CC
:102620001F910895CF93DF93C0E080919302C81764
:1026300018F0DF91CF91089561E08C2F72DFD82FD1
:1026400060E08C2F6EDF4D2F682F8C2FB4DFCF5FB3
:10265000ECCFA9C9089580E02FDD81700895D7DD02
:102660002FEF86E791E0215080409040E1F700C0D5
:102670000000CDDDF0DF882319F0EBDF0C942C2077
:102680000895EDCF0895A1E0B0E0E9E4F3E10C9402
:102690003E277C01FC0160817181828193818E01E2
:1026A0000F5F1F4F21E030E040E050E026D2F701FD
:1026B00080819181A281B3810196A11DB11D80838A
:1026C0009183A283B38389812196E6E00C945A27F3
:1026D00084E00895F1C008951EC1089542C108958F
:1026E00079C108951F93CF93DF93E4D0C0E0D0E089
:1026F00010C0412F6D2F8C2F0E940F039C01412F82
:102700006D2F8C2F08D11F5F153099F7DF5FD43004
:1027100011F010E0EECFD0E041E06D2F8C2F0E9441
:102720002B039C0141E06D2F8C2F54D140E06D2F85
:102730008C2F0E942B039C0140E06D2F8C2F4AD1DF
:10274000D13039F4CF5FC43091F6DF91CF911F9132
:102750000895D1E0E1CF0F931F938A019B0150E0D0
:1027600040E0BC0190E080E066D11F910F91089598
:102770000F931F938A019B0150E040E0BC0190E061
:1027800080E086D11F910F910895843028F4643041
:1027900018F4453008F490C090E080E0089584304B
:1027A00018F4623008F4DDC090E080E0089580E81D
:1027B00008959ED1CB0108950F931F938A019B0129
:1027C00050E040E0BC0190E080E097D11F910F9174
:1027D00008950F931F938A019B0150E040E0BC01D4
:1027E00090E080E0BFD11F910F91089564D0FDC1AA
:1027F0004F925F926F927F92BF92CF92DF92EF9251
:10280000FF920F931F93CF93DF9300D000D0CDB7EB
:10281000DEB7B82E87FD23C06BD1615071098109E5
:1028200091098E010F5F1F4F21E030E040E050E042
:1028300064D18981811113C05BD12B013C01C12C72
:10284000D12C7601B1101DC0C982DA82EB82FC82E4
:1028500040E0BE016F5F7F4F83E493E11DD60F9090
:102860000F900F900F90DF91CF911F910F91FF90DC
:10287000EF90DF90CF90BF907F906F905F904F90E0
:102880000895C414D504E604F70449F38E010F5FDC
:102890001F4F21E030E040E050E0C701B6012DD1EC
:1028A0008981811101C0BA948FEFC81AD80AE80A49
:1028B000F80AC8CF089508950F931F93CF93DF931D
:1028C000843030F5643020F5453010F5C42FD0E069
:1028D000CC0FDD1F2AE0629FC00DD11D112438E20C
:1028E000839FC00DD11D1124CE0189960E9493278C
:1028F000082F10E0102F0027CE018A960E94932700
:102900009801282BC901DF91CF911F910F91089554
:1029100090E080E0F8CF1F93CF93DF93122F8430A5
:10292000E0F46430D0F44530C0F4C42FD0E0CC0FD4
:10293000DD1F9AE0699FC00DD11D112498E2899F87
:10294000C00DD11D1124632FCE0189960E94AF279F
:10295000612FCE018A960E94AF27DF91CF911F9100
:102960000895FF920F931F93CF93DF93F42E84303B
:1029700070F5623060F528E0829F8001112434E018
:10298000639FB0011124060F171F07531F4F82E0EA
:1029900090E0442311F090E080E0800F911F0E94AE
:1029A0009327C82FD0E0DC2FCC2783E090E0FF20D6
:1029B00011F081E090E0800F911F0E9493279E010B
:1029C000282BC901CDB7DEB7E5E00C945B2790E07A
:1029D00080E0F8CF0F931F93CF93DF93142F022F34
:1029E000843020F5623010F598E0899FE0011124D1
:1029F00084E0689FB0011124C60FD71FC753DF4F73
:102A000082E090E0442311F090E080E0632F8C0F8F
:102A10009D1F0E94AF2783E090E0112311F081E019
:102A200090E0602F8C0F9D1F0E94AF27DF91CF9108
:102A30001F910F910895B0E0A0E0E1E2F5E10C9460
:102A400038276B017C01E8014B015C01820E931E6B
:102A5000A41EB51EC6018996C814D904EA04FB0455
:102A600029F4CDB7DEB7ECE00C94542720EAC21667
:102A7000D104E104F10450F40E9493278883219645
:102A80008FEFC81AD80AE80AF80AE4CF1882F7CFFD
:102A9000B0E0A0E0EEE4F5E10C9438276B017C0196
:102AA000EB014B015C01820E931EA41EB51E960124
:102AB000C6018996C814D904EA04FB0429F4CDB7E9
:102AC000DEB7ECE00C94542740EAC416D104E104CC
:102AD000F10440F42C1B3D0BF801E20FF31F608161
:102AE0000E94AF278FEFC81AD80AE80AF80ADFCF8A
:102AF00067E173E080E090E00895B0E0A0E0E3E8F3
:102B0000F5E10C9434276B017C0129013A014B015A
:102B100029EE820E911CD0E0C0E0C4018C0F9D1FF5
:102B2000AE0170E060E0441555056605770528F0B4
:102B3000CDB7DEB7E0E10C9450274C0D5D1D6E1D46
:102B40007F1D5801AC0EBD1E473153406105710514
:102B500030F40E949327F50180832196DECFF501A2
:102B60001082FBCF4F925F926F927F92AF92BF9293
:102B7000CF92DF92EF92FF920F931F93CF93DF9349
:102B80006B017C0129013A015B0129EEA20EB11C07
:102B9000D0E0C0E0C5018C0F9D1FAE0170E060E089
:102BA000441555056605770578F0DF91CF911F91A3
:102BB0000F91FF90EF90DF90CF90BF90AF907F90FC
:102BC0006F905F904F9008954C0D5D1D6E1D7F1DA1
:102BD000473153406105710530F4F801EC0FFD1FDA
:102BE00060810E94AF272196D5CFA0E1B0E0EBEF46
:102BF000F5E10C943427CE0101965C0180E1F501EA
:102C000011928A95E9F703E310E097E1492E93E0EA
:102C1000592E612C712C29EE822E912C0150110914
:102C200021F46096E0E10C9450276201F1E14F1627
:102C30005104610471042CF080E1C82ED12CE12CE8
:102C4000F12CA601B401C5010E94A0278C0C9D1C8B
:102C50000D2C000CEE08FF084C185D086E087F086C
:102C6000DDCFCF93DF93EB0186319C4711F50E94B6
:102C7000A80B9D81992399F08A7A91E009F490E05C
:102C800090939802811109C089E20E94961E0E94C9
:102C9000530C80E0DF91CF91089585E3F6CF8091CA
:102CA0009802811104C089E20E94AD1EF0CF85E335
:102CB000FBCF81E0EFCFCF93DF93EC01FB01858168
:102CC000882309F4CEC09E0130572332310508F025
:102CD000AEC088EB92E00E94E00CFE01E150F047AC
:102CE000E232F10520F4E551F84D0C94252780914E
:102CF000B80281608093B80293C08091B902886065
:102D00008093B9028DC08091B8028260F3CF809128
:102D1000B8028460EFCF8091B8028860EBCF8091D9
:102D2000B9028160EDCF8091B9028260E9CF8091D4
:102D3000B8028061DFCF8091B8028062DBCF8091E2
:102D4000B8028064D7CF0E9471078091B802806872
:102D5000D1CF8091B8028C60CDCF8091B9028360D1
:102D6000CFCF8091B8028E7FC5CF8091B902877F87
:102D7000C7CF8091B8028D7FBDCF8091B8028B7F85
:102D8000B9CF8091B802877FB5CF8091B9028E7F8D
:102D9000B7CF8091B9028D7FB3CF8091B8028F7E7B
:102DA000A9CF8091B8028F7DA5CF8091B8028F7B8B
:102DB000A1CF0E9471078091B8028F779BCF80913D
:102DC000B802837F97CF8091B9028C7F99CF809191
:102DD000B80282FB992790F921E0922790FB82F9B3
:102DE00090FB83F987CF8091B902982F90959170CD
:102DF0008E7F892B90FB81F983CF9091B802892F28
:102E00008F7B96FF806476CF0E9471079091B80205
:102E1000892F97FB87F980586DCF81E00E94E40CE1
:102E200088EB92E00E94E20C0E94710780E0DF9143
:102E3000CF91089580E0F2CF9091B802892F8F7ED4
:102E400094FF806157CF9091B802892F8E7F90FFB9
:102E5000816050CF9091B902892F877F93FF88605E
:102E60004FCF81E0E4CF282F35EB2303C00111249D
:102E700097FF04C080589109892F089580589F4F6B
:102E8000FBCF80919F0280FF0DC06091090170E02F
:102E9000660F771F6038710570F56115710569F16E
:102EA000862F089581FF07C06091090184E0689F23
:102EB000B0011124EFCF6091090182FD0AC0809119
:102EC0009E028823A9F020910801609109018217D0
:102ED00010F088E0ECCF869FC001112433E0880F0A
:102EE000991F3A95E1F7622F70E00E941227D2CF26
:102EF00068E070E0D5CF8FE7089581E00895809174
:102F00009F0280FF0CC06091050170E07595679588
:102F1000759567956115710549F1862F089581FFB3
:102F200006C06091050170E075956795F3CF6091DB
:102F3000050182FD0BC090919D029923A1F0609143
:102F4000040180910501961738F0682F70E0603811
:102F5000710500F38FE70895899FC001112470E087
:102F60000E941227F4CF61E070E0D7CF81E008958E
:102F70008D3C29F486DF81958093A30208958E3CD1
:102F800011F47FDFF9CF8F3C29F47BDF81958093AB
:102F9000A2020895803D11F474DFF9CF893D21F438
:102FA000AEDF8093A40208958A3D19F4A8DF8195CD
:102FB000F8CF8B3D29F4A3DF81958093A502089576
:102FC0008C3D11F49CDFF9CF9FE2980F983070F49C
:102FD000815D990B21E030E001C0220F8A95EAF76C
:102FE0008091A102822B8093A10208958D3D31F43E
:102FF00080919F02816080939F0208958E3D21F40D
:1030000080919F028260F7CF8F3DB9F780919F0238
:103010008460F1CF4091A2028D3C59F48091A302CB
:1030200087FF0DC01092A30241110BC010929E02A7
:1030300008C08E3C81F48091A30218169CF34423AF
:1030400081F08091A4029091A502892B09F05AC0C9
:1030500010929D0208958F3C49F447FFF0CF1092E3
:10306000A2028091A3028111ECCFE0CF803D19F440
:103070001416ACF3E4CF9091A402893D29F41916FB
:10308000F4F61092A402DBCF8A3D19F497FFD7CF54
:10309000F8CF9091A5028B3D29F497FFD0CF1092E5
:1030A000A502CDCF8C3D19F41916CCF3C8CF9FE201
:1030B000980F983090F4815D990B21E030E0B901D0
:1030C00002C0660F771F8A95E2F7CB018095909139
:1030D000A10289238093A102B2CF8D3D31F480916A
:1030E0009F028E7F80939F02AACF8E3D21F4809114
:1030F0009F028D7FF7CF8F3D09F0A1CF80919F0276
:103100008B7FF0CF08956CD79C019091A2028091A3
:10311000A302982B21F030939C0220939B02909164
:10312000A4028091A502982B21F030939A0220935B
:10313000990280EA92E0E1C486E0E0EAF2E0DF0191
:103140001D928A95E9F710929E0210929D021092AC
:103150009F020895FC01828181110EC0838181113B
:103160000BC08481811108C091E08581811101C06B
:1031700090E0892F8170089581E0FCCFA6E0B0E057
:10318000E4ECF8E10C94412786E0E0EAF2E0DE01AD
:10319000119601900D928A95E1F71092A202109279
:1031A000A3021092A4021092A5028B819C81892B0C
:1031B00081F080919B0290919C02A3D6AC019091EA
:1031C0009E029923A9F180910A018417150608F43B
:1031D0003CC08D819E81892B89F0809199029091CC
:1031E0009A028FD6AC0190919D02992309F463C095
:1031F000809106018417150608F46BC0BE016F5F4D
:103200007F4F80EA92E0D9D5811104C080EA92E034
:10321000A1DF811178DF86E0FE013196A0EAB2E0FD
:1032200001900D928A95E1F72696E3E00C945D27D4
:1032300020910B018AE0289F900111242417350763
:1032400040F69F5F90939E0202C09F3FD1F71B8183
:10325000112351F016DE9FEF11160CF491E0899FB7
:10326000802D11248093A2021C81112351F009DECC
:103270009FEF11160CF491E0899F802D112480930B
:10328000A3028091A202882309F4A3CF1091A30284
:10329000112309F49ECFE7DD882349F08093A20231
:1032A000812FE1DD882329F08093A30292CF81E072
:1032B000F5CF81E0F9CF209107018AE0289F9001A6
:1032C00011242417350708F099CF9F5F90939D0232
:1032D00002C09F3FD1F71D81112351F010DE9FEFF7
:1032E00011160CF491E0899F802D11248093A40283
:1032F0001E81112351F003DE9FEF11160CF491E0B3
:10330000899F802D11248093A5028091A402882397
:1033100009F474CF1091A502112309F46FCFA3DD36
:10332000882349F08093A402812F9DDD882329F012
:103330008093A50263CF81E0F5CF81E0F9CFDC0176
:10334000ED91FC91119784913196ED93FC93089542
:10335000B0E0A0E0EEEAF9E10C943B27E82FF0E0C2
:10336000E158FE4FB490282F26952695269530E0FB
:10337000F901E15EFD4F0491877010E0082E02C054
:10338000159507950A94E2F701701127F901E15F9D
:10339000FD4FE490F12C082E02C0F594E7940A94B6
:1033A000E2F791E0E922FF24F901E150FE4FC491D8
:1033B000D0E002C0D595C7958A95E2F7C170DD27A8
:1033C000C62ED12C0115110549F5E114F10431F097
:1033D00086EE0E94D804C601009771F5B6018B2DC8
:1033E0000E944A05C601009779F5E114F104A1F5A0
:1033F0000115110531F081EE0E941D05C6010097EF
:10340000C9F5CD2B31F08CE20E946005C114D104C6
:10341000C9F5CDB7DEB7E9E00C94572781EE0E94DD
:10342000D804C601009789F2EFE9FFE03197F1F780
:1034300000C000000197F6CFEFE9FFE03197F1F708
:1034400000C000000197C8CFEFE9FFE03197F1F726
:1034500000C000000197C7CF86EE0E941D05C6017F
:10346000009731F2EFE9FFE03197F1F700C000007B
:103470000197F6CFEFE9FFE03197F1F700C00000C8
:103480000197BDCF8FE99FE00197F1F700C00000E1
:1034900091E0C91AD108BACFB0E0A0E0E2E5FAE1C4
:1034A0000C943B278C017B01D42F8AE0B82EC701F6
:1034B000F80109958823A9F0813009F058C0C701A7
:1034C000F8010995C82F813089F4C701F8010995E1
:1034D0000E9460058D2F90E0009709F040C0C11157
:1034E000E6CFCDB7DEB7E9E00C945727823031F450
:1034F000C701F80109950E94D804ECCF833031F45C
:10350000C701F80109950E941D05E4CF843011F729
:10351000C701F8010995C82FD12CC12C2C2F20539D
:10352000330BC9012A30310568F0C114D10491F27E
:103530008FE99FE00197F1F700C0000091E0C91A00
:10354000D108F3CFBC9C9001BD9C300D11246C01BF
:10355000C20ED31EC701F8010995C82FDFCFEFE9CE
:10356000FFE03197F1F700C000000197B5CF6D2F54
:10357000EFDE9DCFA2E0B0E0E0ECFAE10C94422750
:10358000462F9A838983BE016F5F7F4F8FE999E150
:1035900083DF2296E2E00C945E270F931F93CF9374
:1035A000DF93C42FD22FFC0185818823C1F0409383
:1035B000A80216D59093A7028093A60280E28C0FF2
:1035C000883040F4C77081E001C0880FCA95EAF7DF
:1035D0000E946705DF91CF911F910F91089510917F
:1035E000A802141331C08091A6029091A70289D439
:1035F000883C910548F5C0E2CD0F1D17B9F080E277
:10360000810F883040F4177081E001C0880F1A954F
:10361000EAF70E946C05C83048F481E09D2F97704E
:1036200001C0880F9A95EAF70E946705802F0E94D3
:103630006005C83078F6D77081E001C0880FDA9550
:10364000EAF70E946C05C6CF80E28C0F883010F636
:10365000C77081E001C0880FCA95EAF7F2CF0F93D7
:10366000DB0188519C478730910598F5FC01E35FA9
:10367000F74D0C94252706E221EE41EE6AE17CE746
:10368000CD018BDF80E00F91089507E225EE45EE36
:103690006BE17CE7F5CF06E221EE40EE68E17CE7E6
:1036A000EFCF07E225EE44EE69E17CE7E9CF06E2E1
:1036B00021EE42EE6CE17CE7E3CF07E225EE46EE39
:1036C0006DE17CE7DDCF08E221E045EE6EE17CE7CD
:1036D000D7CF15968C91882319F01092A802D3CFDA
:1036E00081E0D1CF1F93CF93DF9387372CE79207E9
:1036F00051F0C1E088379C47B9F4FB01C581CC2368
:1037000029F129D005C0FB01C581CC2391F020D03F
:103710000E94D70723D0D82F1ED0C82F19D04D2FE5
:103720006C2F0E94F708C0E08C2FDF91CF911F9182
:1037300008950ED00E94E10711D0182F0CD0D82F79
:1037400007D0412F6D2F0E94F708EECF04D0F2CFA3
:1037500080910E01089580910D01089580910C01D2
:103760000895A3E0B0E0E7EBFBE10C944227AE0143
:103770004F5F5F4FBE016E5F7F4FCE0103963AD120
:103780008B81853239F48A81893021F481E09981F5
:10379000953009F080E081702396E2E00C945E277A
:1037A000882321F045E069E085E24AC14FEF6FEFE1
:1037B0008FEFFBCF08950895CF92DF92EF92FF92A3
:1037C0006B017C01F8DFC701B60159D1FF90EF9082
:1037D000DF90CF9008950DD180E0E2DF60E070E0EF
:1037E000CB01EADF0E94721301D881E0D9CFE2DF7A
:1037F0003DD1E1DFB6DF811101C0EDCF089508951D
:103800009C01FB018581882351F0A901575740385D
:10381000510530F4822F0E94F81380E0089581E072
:1038200008952FEFFC0120830895FBCF089580E0D9
:103830000895B0E0A0E0EFE1FCE10C943C27EC013E
:10384000E62EF5DF811110C0E881E150E531B8F4D2
:10385000F0E0EC5EF74D0C94252719828CE08A830A
:103860006E2DCE010E949511CDB7DEB7E8E00C9425
:10387000582789818230B9F028F4813061F08FEFC8
:103880008883EECF833089F08430C9F71A821B8297
:103890001C821D82E5CFB0D30E942B276A837B83D5
:1038A0008C839D83DDCFE2D0F7CF8A81082F10E093
:1038B0006E0193E0C90ED11C9CE1F92EF80E043084
:1038C000110570F6802F0E945C10F60181936F0144
:1038D0000F5F1F4FF012F3CFC3CF8981823029F0E1
:1038E000853069F68A818BDFBBCF6A817B818C81D1
:1038F0009D810E942B2760DFB3CF4B816A81898134
:103900000E946A139827892798279D838C83A8CFC4
:103910002C813D813227232732274B816A8189817F
:103920000E946C139DCF0E9472139ACF6E2DCE0110
:103930007CDF96CF0E94D713898392CF0E94D91340
:103940009827892798279A8389838ACF6B8170E08B
:1039500089819A81AE014C5F5F4F9827892798270C
:103960000E94DC137DCF6B8170E089819A81AE016A
:103970004C5F5F4F9827892798270E94E91370CFE3
:103980000E94F6136DCF0E946813D6CF6B8170E052
:1039900089819A81AE014C5F5F4F982789279827CC
:1039A0000E94AB135DCF6B8170E089819A81AE017B
:1039B0004C5F5F4F9827892798270E94B81350CFF4
:1039C00041E08B81811101C040E06A8189810E94C0
:1039D0006E1398CF2C813D8132272327322741E077
:1039E0008B81811101C040E06A8189810E9470133E
:1039F00037CF0895EF92FF920F931F93CF93DF93EA
:103A00007C018B01EA01892B31F085E290E00E9474
:103A10009327F70180830115110531F086E290E0CC
:103A20000E949327F8018083209729F087E290E095
:103A30000E9493278883CDB7DEB7E6E00C945A271F
:103A4000CF93DF93D62FC42F682F85E290E00E949A
:103A5000AF276D2F86E290E00E94AF276C2F87E2A0
:103A600090E00E94AF27DF91CF91089588E290E027
:103A70000E949327682F70E090E080E0089588E22C
:103A800090E00C94AF279093AE028093AD0208951E
:103A9000FFD191E0813009F090E0892F0895E09105
:103AA000AD02F091AE02309739F00190F081E02D37
:103AB000309711F00995089580E00895E091AD02E6
:103AC000F091AE02309731F00280F381E02D309713
:103AD00009F009950895E091AD02F091AE0230979A
:103AE00059F024813581232B39F026E0DC012C9319
:103AF0000480F581E02D09950895E091AD02F091E3
:103B0000AE02309759F026813781232B39F022E01D
:103B1000DC012C930680F781E02D09950895A3E040
:103B2000B0E0E5E9FDE10C9442272091AB02309131
:103B3000AC0228173907B1F09093AC028093AB0226
:103B4000E091AD02F091AE02309761F00084F18512
:103B5000E02D309739F023E029839B838A83CE01BF
:103B6000019609952396E2E00C945E27A3E0B0E06D
:103B7000ECEBFDE10C9442272091A9023091AA02BE
:103B800028173907B1F09093AA028093A902E09117
:103B9000AD02F091AE02309761F00084F185E02D26
:103BA000309739F024E029839B838A83CE010196E4
:103BB00009952396E2E00C945E27E091AD02F09126
:103BC000AE02309731F00284F385E02D309709F092
:103BD00009950895CF93DF93C0910201D09103011D
:103BE000229656DF882381F08091B80287FF0CC0AF
:103BF000C0910001D091010122969EE180E0915098
:103C000028F4DF91CF91089596E0F8CF29912223EF
:103C1000B1F38F5FF4CFCF93C82F811102C080E042
:103C200023C036DF882311F18091B80287FF1EC0C0
:103C3000EC2FE695E695E695EE3188F78091000148
:103C400090910101E80FF92FF11D228130E0C7703A
:103C500081E090E002C0880F991FCA95E2F72823FF
:103C6000392381E0232BD9F2CF910895809102016D
:103C700090910301FC013296089621912C1721F0B6
:103C8000E817F907D1F7CBCF81E0EECF9C01FC011B
:103C900032969FEF80E04191461751F09F3F19F413
:103CA000411101C0982F8F5F8630A9F79F3F09F41B
:103CB0000895290F311D97FD3A95F9016283089502
:103CC000FC01329608962191261303C0DF0111975B
:103CD0001C92E817F907B9F70895E62FE695E695DF
:103CE000E695EE3168F4E80FF92FF11D677021E0D9
:103CF00030E001C0220F6A95EAF78281822B82832D
:103D00000895E62FE695E695E695EE3170F4E80F16
:103D1000F92FF11D677021E030E001C0220F6A9594
:103D2000EAF720958281282322830895CF93C82F14
:103D3000AFDE6C2F882359F08091B80287FF07C04F
:103D40008091000190910101C8DFCF910895809189
:103D50000201909103019ADFF8CFCF93C82F98DE2C
:103D60006C2F882359F08091B80287FF07C080919B
:103D7000000190910101C5DFCF910895809102016A
:103D8000909103019DDFF8CF83DE882379F0809145
:103D9000B80287FF0BC0E0910001F091010132965B
:103DA0008EE1DF011D928A95E9F70895E091020105
:103DB000F0910301329686E0F4CFDC01FB0111960D
:103DC0009C9111978181981322C012968C91129721
:103DD000882319F0928189131AC013968C91139736
:103DE000882319F09381891312C015968C91159729
:103DF000882319F0958189130AC014969C91992300
:103E000021F081E02481291303C080E001C081E01A
:103E1000817008950895FECF089581110CC081E04E
:103E20008093120160910F01709110018091110136
:103E300090911201F0CF82E0F3CF83E080931201E2
:103E400060910F0170911001809111019091120108
:103E5000E2CFE3CF089581E08093120160910F01DA
:103E6000709110018091110190911201D4CFF3CF84
:103E7000089591E0811101C090E09093110160914B
:103E80000F01709110018091110190911201C3CF27
:103E90008091110108958093100160910F0170913C
:103EA00010018091110190911201B5CF8091100104
:103EB000089580930F0160910F017091100180911E
:103EC000110190911201A7CF80910F0108950895DB
:103ED0000895FECF089508950895F9CF0895CF93DA
:103EE000FADF0E940711F8DFC0E08C2F0E945C10FF
:103EF000811105C0CF5FC430C1F7CF91089581E033
:103F0000FCCFCF93DF93EC016BD08C1B9D0BDF912B
:103F1000CF91089585B7806885BF85B7806885BFD4
:103F200008951F921FB61F9211248F939F93AF93F2
:103F3000BF938091AF02811113C08091C202909112
:103F4000C302A091C402B091C5024196A11DB11D4A
:103F50008093C2029093C302A093C402B093C5029F
:103F6000BF91AF919F918F911F901FBE1F90189589
:103F70008091CA02843031F10E9451041092AF0244
:103F800088E190E020E40FB6F894A8958093600053
:103F90000FBE2093600083B7817F846083BF83B7A7
:103FA000816083BF7894889583B78E7F83BF0FB677
:103FB000F894A895809160008861809360001092C9
:103FC00060000FBE08950E9471070C94550482E0B2
:103FD00084BD93E095BD9AEF97BD80936E000895E0
:103FE0002FB7F8948091C2029091C302A091C402AD
:103FF000B091C5022FBF08952FB7F8946091C20207
:104000007091C3028091C4029091C5022FBF0895A0
:1040100078941F921FB61F9211248F939F93AF9392
:10402000BF938091C2029091C302A091C402B0914B
:10403000C5020196A11DB11D8093C2029093C302D7
:10404000A093C402B093C502BF91AF919F918F918D
:104050001F901FBE1F90189587E797E79093010860
:104060008093000888E19AE00FB6F894A8958093B1
:1040700060000FBE90936000FFCF88E19AE00FB61A
:10408000F894A895809360000FBE90936000FFCFD6
:104090009B01BA019091CA029430E1F48F70809331
:1040A000E9009FEF8091E800915085FD06C085ED05
:1040B0008A95F1F700009111F5CF8091E80085FF16
:1040C00009C050E040E0C901F6D18091E8008E7748
:1040D0008093E8000895603229F440E250E0BC018A
:1040E00082E0D6CF089543E050E0BC0184E0D0CF19
:1040F00046E050E0BC0184E0CBCF40E250E0BC01A0
:1041000084E0C6CFCF93DF93EC01C2DE48E050E0FD
:10411000BE0181E0BDDF88E0FE01A0EBB2E00190CE
:104120000D928A95E1F7DF91CF910895A0E2B0E07A
:10413000EBE9F0E2A7C68091CA028430F9F483E08B
:104140008093E9008091E80082FF18C08091E80028
:1041500090E085FF08C050E040E060E270E0CE01F2
:104160000196F6D191E08091E8008B778093E8008A
:10417000992321F060E2CE0101965BDBA096E2E09C
:104180009DC68091C902811107C070D3C7D38091A9
:10419000E20084608093E20008951092C9020895BD
:1041A0005ADE81E066CE6091C60281E0611101C0F5
:1041B00080E043CE9091CA0281E0943009F080E023
:1041C0006091C60246CE42E061EC81E0CBD242E291
:1041D00061EC84E0C7D242E261EC82E0C3D242E209
:1041E00060EC83E0BFD29091CA0281E0943009F084
:1041F00080E06091C60211CE8091CC02833009F438
:1042000060C030F48130D1F1823009F496C0089555
:104210008A3009F485C08B3009F46DC0893009F00B
:104220004FC08091CB02813209F04AC08091CF0209
:104230009091D002009719F0029709F041C0809147
:10424000E800877F8093E8008091E80082FF34C017
:104250009091F3008091F200029731F48091F10087
:10426000813011F0863019F48091F10014DE8091D4
:10427000E8008B778093E800A9D222C08091CB021E
:10428000813AF1F48091E800877F8093E800809183
:10429000CF029091D002892B59F468E080EB92E034
:1042A00070E0A3D18091E8008B778093E8000895B7
:1042B00060E090E080E0F4CF8091CA028111C4CF29
:1042C00008958091CB02813AD9F78091CF029091E5
:1042D000D002892BA9F78091E800877F8093E800BE
:1042E0008091E80080FFFCCFD3DD8093F1008091C6
:1042F000E8008E77BFCF8091CB02813209F78091A1
:10430000CF029091D002892BD9F68091E800877F67
:104310008093E8005BD28091CD02ABDD0C947107F5
:104320008091CB02813261F68091E800877F809393
:10433000E8004CD28091CE02BCCD8091CB02813A74
:1043400009F0BECF8091E800877F8093E8008091DC
:10435000E80080FFFCCFB8DDC8CF84B7877F84BF7B
:104360000FB6F894A89580916000886180936000F2
:10437000109260000FBE80E890E00FB6F894809332
:104380006100909361000FBE72CD70D2C7D2E2EE91
:10439000F0E080818460808378942AC583E191E095
:1043A00072CB8091CA02853029F48091CA0285308F
:1043B00011F009CE0895DCDD92DD8823B1F3809100
:1043C000C802882391F361D00E947107EECF08954F
:1043D0009A014091D1025091D20200C0492F552735
:1043E0004330510521F168F44130510509F443C0CF
:1043F0004230510509F444C090E080E050E040E0D4
:1044000026C04132510551F142325105A9F76330BE
:10441000710590F7FB01EE0FFF1FEF54FE4F408137
:10442000518162557E4FFB01808190E010C0992739
:104430008130910581F0009729F00297E9F6EFE2CB
:10444000F2E002C0EFE6F2E0849190E0AF01F90102
:10445000518340830895EBE4F2E0F6CF63307105B9
:1044600058F6660F771FFB01E954FE4F40815181DA
:1044700089E090E0ECCF82E190E04EEC52E0E7CFB3
:104480008BE590E043E752E0E2CF80E189BD82E135
:1044900089BD09B400FEFDCF8091D8008F7D809347
:1044A000D8008091E00082608093E0008091E0007D
:1044B00081FDFCCF0895AF92BF92CF92DF92FF9221
:1044C0000F931F93CF93DF936C01EB018A019DD172
:1044D000F82E811123C00115110539F0F8018081F2
:1044E0009181C81BD90BC80ED91EB12CA12C2097C5
:1044F000A9F08091E80085FD21C08091E8008E77C9
:104500008093E80001151105A1F0F80180819181E7
:10451000A80EB91EB182A08285E0F82E8F2DDF9102
:10452000CF911F910F91FF90DF90CF90BF90AF90F0
:1045300008956BD18823D9F2F82EF0CFF60181913E
:104540006F018093F1002197FFEFAF1ABF0ACFCF21
:10455000AF92BF92CF92DF92FF920F931F93CF93B0
:10456000DF936C01EB018A0150D1F82E811123C039
:104570000115110539F0F80180819181C81BD90B13
:10458000C80ED91EB12CA12C2097A9F08091E8006B
:1045900085FD21C08091E8008B778093E8000115AC
:1045A0001105A1F0F80180819181A80EB91EB18298
:1045B000A08285E0F82E8F2DDF91CF911F910F9172
:1045C000FF90DF90CF90BF90AF9008951ED18823C9
:1045D000D9F2F82EF0CF8091F100F60181936F01AE
:1045E0002197FFEFAF1ABF0ACFCFFC018091D10214
:1045F0009091D20286179707A0F06115710529F4F2
:104600009091E8009E779093E80090E06115710525
:1046100051F4911108C08091E80082FF34C080E01D
:104620000895BC01F2CF8091CA028823C1F1853080
:10463000C1F18091E80083FD30C08091E80082FDE7
:10464000EACF8091E80080FFE1CF8091F3002091D4
:10465000F200382F6115710519F02830310558F036
:1046600091E02830310509F090E02091E8002E77A4
:104670002093E800CBCF81918093F10061507109C4
:104680002F5F3F4FE7CF8091CA02882341F08530EA
:1046900041F08091E80083FFBECF81E0089582E081
:1046A000089583E00895FC018091D1029091D20297
:1046B00086179707A0F06115710529F48091E8002D
:1046C0008E778093E80090E06115710551F49111A7
:1046D00008C08091E80082FF35C080E00895BC01E9
:1046E000F2CF8091CA028823C9F18530C9F1809147
:1046F000E80083FD31C08091E80082FDEACF80911F
:10470000E80080FFE1CF8091F3002091F200382F84
:104710006115710519F02830310558F091E0283005
:10472000310509F090E08091E8008E778093E800F1
:10473000CBCF84918093F1003196615071092F5F46
:104740003F4FE6CF8091CA02882341F0853041F087
:104750008091E80083FFBDCF81E0089582E0089555
:1047600083E00895982F973028F08F708093E900A8
:1047700081E008959093E900242F762F50E0981758
:1047800031F07091EC002091ED005091F00021FD8E
:1047900002C09F5FE8CF3091EB003E7F3093EB008B
:1047A0003091ED003D7F3093ED003091EB003160B2
:1047B0003093EB007093EC002093ED005093F000E9
:1047C0002091EE0027FDE5CF80E008958091CB0297
:1047D00087FF13C08091E80082FF06C08091E80047
:1047E0008B778093E80004C08091CA028111F2CFD8
:1047F00008958091CA028823D9F38091E80080FF50
:10480000F8CF8091E8008E77ECCF2091E4003091D2
:10481000E50095E6A9012091EC00822F817020FF30
:1048200006C08091E80080FF06C080E008952091D6
:10483000E80022FD1AC08091CA02882389F08530E1
:1048400089F08091EB0085FD0FC02091E40030914C
:10485000E50042175307F9F29150E1F684E008951C
:1048600082E0089583E0089581E0089567D06ED0D6
:10487000E0EEF0E0808181608083E8EDF0E080810F
:104880008F77808319BCA7EDB0E08C918E7F8C93DD
:1048900080818F7E80831092C90208950F931F93A9
:1048A000CF93DF934BD052D0C8EDD0E088818F7783
:1048B000888388818068888388818F7D888319BCFC
:1048C0001092CA021092C6021092C8021092C70239
:1048D00000EE10E0F80180818B7F80838881816009
:1048E000888342E060E080E03DDFE1EEF0E080813F
:1048F0008E7F8083E2EEF0E0808181608083808122
:1049000088608083F80180818E7F808388818061C8
:104910008883DF91CF911F910F910895E8EDF0E02A
:1049200080818F7E8083E7EDF0E0808181608083ED
:1049300084E082BF81E08093C902B0CFE8EDF0E06F
:1049400080818E7F80831092E20008951092DA00B9
:104950001092E10008951F920F920FB60F9211244A
:104960002F933F934F935F936F937F938F939F9377
:10497000AF93BF93EF93FF938091E10082FF0AC052
:104980008091E20082FF06C08091E1008B7F8093DE
:10499000E1002DD28091DA0080FF18C08091D8000C
:1049A00080FF14C08091DA008E7F8093DA008091BE
:1049B000D90080FF91C080E189BD82E189BD09B441
:1049C00000FEFDCF81E08093CA02DBDB8091E10035
:1049D00080FF18C08091E20080FF14C08091E20047
:1049E0008E7F8093E2008091E20080618093E200FC
:1049F0008091D80080628093D80019BC85E08093B4
:104A0000CA02D1DB8091E10084FF2AC08091E200DC
:104A100084FF26C080E189BD82E189BD89B5982FD8
:104A2000917080FFFBCF8091D8008F7D8093D8005C
:104A30008091E1008F7E8093E1008091E2008F7E83
:104A40008093E2008091E20081608093E200809197
:104A5000C602882309F445C084E08093CA02AADB19
:104A60008091E10083FF27C08091E20083FF23C093
:104A70008091E100877F8093E10082E08093CA0209
:104A80001092C6028091E1008E7F8093E1008091B8
:104A9000E2008E7F8093E2008091E200806180934B
:104AA000E20042E060E080E05DDE8091F00088603E
:104AB0008093F00075DBFF91EF91BF91AF919F91D3
:104AC0008F917F916F915F914F913F912F910F90B7
:104AD0000FBE0F901F90189519BC1092CA025DDB93
:104AE00075CF8091E30087FD93E09093CA02B7CF22
:104AF0001F920F920FB60F9211242F933F934F9353
:104B00005F936F937F938F939F93AF93BF93CF9355
:104B1000DF93EF93FF93D091E900DF708091EC0079
:104B2000C82FC17080FDC0E81092E9008091F000AC
:104B3000877F8093F00078941ED01092E9008091D6
:104B4000F00088608093F000CD2BCF70C093E90017
:104B5000FF91EF91DF91CF91BF91AF919F918F9195
:104B60007F916F915F914F913F912F910F900FBE69
:104B70000F901F901895AAE2B0E0E0ECF5E281C139
:104B80008BEC92E02091F100FC012193CF01F2E047
:104B9000833D9F07B9F730DB8091E80083FF16C1A2
:104BA0008091CB029091CC029A3008F00FC1E92F8E
:104BB000F0E0E75DF74D49C1803899F0823809F09F
:104BC00005C18091CF028F70873008F0FFC08093BD
:104BD000E9008091EB0085FB882780F91092E900BD
:104BE00006C08091C7029091C80291118260909195
:104BF000E800977F9093E8008093F1001092F10015
:104C00008091E8008E77DFC0882309F4CDC0823020
:104C100009F0DCC08091CD028111D0C08091CF021B
:104C20008F702FEF280F263008F0D0C08093E90056
:104C30002091EB0020FFC2C0933031F48091EB0053
:104C400080628093EB00BAC09091EB0090619093EA
:104C5000EB0021E030E001C0220F8A95EAF72093B3
:104C6000EA001092EA008091EB008860EACF81119F
:104C7000ADC01091CD021F778091E3008078812B29
:104C80008093E3008091E800877F8093E8009EDDB9
:104C90008091E80080FFFCCF8091E30080688093E2
:104CA000E30082E0111183E08093CA028FC0805834
:104CB000823008F08BC08091CD029091CE028C3D65
:104CC00023E0920799F583E08A838AE289834FB7CC
:104CD000F894DE01139620E03EE051E2E32FF0E08D
:104CE00050935700E49120FF03C0E295EF703F5FBF
:104CF000EF708E2F90E0EA30B8F0C7968D939D93B9
:104D00002F5F243159F74FBF8091E800877F809350
:104D1000E8006AE270E0CE01019667DC8091E8006D
:104D20008B778093E80052C0C096E8CF6091CF02A5
:104D30007091D002AE014F5F5F4F4ADBBC01892BFF
:104D400009F444C09091E800977F9093E80089812E
:104D50009A81A9DCE3CF8038C9F58091E800877F8C
:104D60008093E8008091C6028093F10049CF8111C1
:104D70002DC09091CD02923048F58091E800877F58
:104D80008093E8009093C60221DD8091C6028823BB
:104D900011F084E005C08091E30087FDFACF81E047
:104DA0008093CA0210DA12C08091CD02813071F472
:104DB00081E0933009F080E08093C8021092E9000E
:104DC0008091E800877F8093E80000DD8091E80013
:104DD00083FF0AC08091E800877F8093E80080917C
:104DE000EB0080628093EB00AA96E3E066C0089532
:104DF000CF938091CA02882399F0C091E900CF70C7
:104E00009091EC00892F817090FD80E8C82B109262
:104E1000E9008091E80083FDAEDECF70C093E90029
:104E2000CF91089597FB072E16F4009406D077FDD6
:104E300008D04FD007FC05D03EF4909581959F4F48
:104E40000895709561957F4F0895EE0FFF1F0590AF
:104E5000F491E02D099469279627692778278727F9
:104E6000782708952F923F924F925F926F927F9290
:104E70008F929F92AF92BF92CF92DF92EF92FF926A
:104E80000F931F93CF93DF93CDB7DEB7CA1BDB0B16
:104E90000FB6F894DEBF0FBECDBF09942A883988BB
:104EA00048885F846E847D848C849B84AA84B984C2
:104EB000C884DF80EE80FD800C811B81AA81B981CE
:104EC000CE0FD11D0FB6F894DEBF0FBECDBFED01E2
:104ED0000895AA1BBB1B51E107C0AA1FBB1FA61741
:104EE000B70710F0A61BB70B881F991F5A95A9F793
:104EF00080959095BC01CD010895FB01DC0104C0B3
:104F00008D910190801921F441505040C8F7881BC1
:104F1000990B0895FB01DC0102C001900D924150F4
:104F20005040D8F70895F999FECF92BD81BDF89A07
:104F3000992780B50895A8E1B0E042E050E02FC085
:104F4000DC01A40FB51F4150504040F0CB01840F4D
:104F5000951F2E9105D041505040D8F70895262F27
:104F6000F999FECF92BD81BDF89A019700B402165F
:104F700039F01FBA20BD0FB6F894FA9AF99A0FBE0D
:104F800008950396272FECDFEADF252FE9DF242F92
:104F9000E7CF0196272FE4DFE2CFDC01CB01FC0154
:104FA000F999FECF06C0F2BDE1BDF89A319600B482
:104FB0000D9241505040B8F70895F894FFCFAF05D7
:104FC000AF05E505E5053E065A06D705D7055E0699
:104FD000BD06C906C906B1162317B916831687166A
:104FE000BD168B16C116CD1697161C179B16D1161B
:104FF0009F16D516FD16A316D9160417A916DF1687
:10500000E7168F16C5169316C916AD16E316F316D6
:105010000D171A177D16B5162A174B1B511B3B1B74
:10502000451B571B5D1B631B2D1C391C6D1C7D1CF8
:10503000881C931C961C961C961C3F1C3F1C9A1C9B
:105040009E1CA61CB31CC01CC31CC61CD31CE01C8D
:10505000EA1CDC250426E6260426E6263726572603
:06506000E626AB26B72690
:105066004A026A02280850011E0A140103020100BE
:10507600000100561F82207D20782073206B20E2DD
:1050860000E900EA00B500B600B700CD008301CC08
:10509600008A01920194012102230224022502269C
:1050A6000227022A02B300B4006F0070009F01CBF2
:1050B600019F02A002818283E200E900EA00B500B6
:1050C600B600B700CD008301CC008A01920194019D
:1050D6002102230224022502260227022A02B30005
:1050E600B4006F0070009F01CB019F02A002818275
:1050F6008334353637666790919200FF01000100D0
:1051060000FFFF0000010001FF0094C693974422B0
:0E511600B6B803E002020385029E02BE02004C
:00000001FF
