:100000000C94FE010C941B020C941B020C941B021A
:100010000C941B020C941B020C941B020C941B02EC
:100020000C941B020C941B020C94FB240C94CE2504
:100030000C94A41F0C941B020C941B020C941B0226
:100040000C941B020C941B020C941B020C941B02BC
:100050000C941B020C941C200C941B020C941B028D
:100060000C941B020C941B020C941B020C941B029C
:100070000C941B020C941B020C941B020C941B028C
:100080000C941B020C941B020C941B020C941B027C
:100090000C941B020C941B020C941B020C941B026C
:1000A0000C941B020C941B020C941B027777772E86
:1000B00063616E697573657669612E636F6D00A902
:1000C00000AA004000A800A900AA004000A800A9BA
:1000D00000AA004000A800A900AA004000A80054FF
:1000E000005F0060006100000055005C005D005E84
:1000F000000152560059005A005B0002525700623C
:1001000000630058000352070004000500060000C9
:10011000520B00080009000A0000000F000C000D3F
:10012000000E0002521300100011001200035215BD
:100130000014001A00080000520C0017001C0018E0
:100140000001523000120013002F0000003800336D
:10015000003400310003523D003A003B003C0000F7
:100160005241003E003F0040000152450042004322
:1001700000440002524E004A004D004B00000000B7
:10018000000000000000002A2B28000000000000F2
:100190000000000000000000000029000000002C0A
:1001A0001E3420212224342627252E362D373827A9
:1001B0001E1F202122232425263333362E37381FB5
:1001C0000405060708090A0B0C0D0E0F1011121377
:1001D0001415161718191A1B1C1D2F3130232D3515
:1001E0000405060708090A0B0C0D0E0F1011121357
:1001F0001415161718191A1B1C1D2F3130354C00F9
:1002000000000000000000000000000000000000EE
:1002100000000000000000000000000000000000DE
:100220000000007E0F00D4FFFFFFC7000000781A17
:10023000036D0061006E0061006E005F00350078A4
:100240000034005F00760031000000220353007587
:10025000006400610072007300680061006E00209D
:10026000005300680065006E006F00790000000414
:1002700003090409025B00030100A0FA090400005D
:1002800001030101000921110100012244000705B9
:100290008103080001090401000203000000092194
:1002A0001101000122220007058203200001070539
:1002B00003032000010904020001030000000921DA
:1002C0001101000122B6000705840320000112017C
:1002D000000200000008504D03000001010200016F
:1002E0000660FF0961A1010962150026FF00952043
:1002F000750881020963150026FF00952075089195
:1003000002C005010902A10185020901A100050938
:1003100019012908150025019508750181020501BB
:10032000093009311581257F950275088106093844
:100330001581257F950175088106050C0A3802157F
:1003400081257F950175088106C0C005010980A13E
:1003500001850319012AB700150126B7009501751B
:10036000108100C0050C0901A101850419012AA012
:1003700002150126A002950175108100C005010932
:1003800006A1018506050719E029E7150025019555
:1003900008750181020507190029EF15002501954F
:1003A000F07501810205081901290595057501916E
:1003B00002950175039101C005010906A101050718
:1003C00019E029E7150025019508750181029501BD
:1003D000750881010507190029FF150026FF009502
:1003E00006750881000508190129051500250195E4
:1003F0000575019102950175039101C011241FBE7D
:10040000CFEFDAE0DEBFCDBF11E0A0E0B1E0E2E780
:10041000F1E502C005900D92A63BB107D9F722E0A5
:10042000A6EBB1E001C01D92A63CB207E1F70E9425
:10043000B2120C9450280C940000819A849A859AE8
:10044000869A899A8C988D988E9856985E9A8098FC
:10045000889A0895CF93C82F89988C988D988E98F4
:100460000E946004823061F020F4811107C0899AF3
:1004700002C0833039F08C2FCF9108958C9AFBCF36
:100480008D9AF9CF8E9AF7CF83EE0E94EE0485E124
:100490000E94EE0485E10E94360583EE0E94360537
:1004A0002FEF81EE94E0215080409040E1F700C0B2
:1004B000000060E08CEA90E00E94F81A2FEF81EED5
:1004C00094E0215080409040E1F700C0000088E2B5
:1004D0000E94EE0488E20E943605089580EE0E9494
:1004E000EE048DE10E94EE048DE10E94360580EE5F
:1004F0000E943605089580EE0E94EE048CE10E9471
:10050000EE048CE10E94360580EE0E9436050895C7
:1005100083EE0E94EE048FE00E94EE048FE00E94C2
:10052000360583EE0E9436050895CF92DF92EF9252
:10053000FF920E9410206B017C018091CF010E94EC
:1005400060049091BC014E992FC0911119C0409147
:10055000B8015091B9016091BA017091BB01C41A00
:10056000D50AE60AF70A96E0C916D104E104F104B7
:1005700038F081110AC00E94440281E08093BC01DE
:10058000FF90EF90DF90CF900895813019F40E9492
:100590006E02F3CF823019F40E947B02EECF8330DB
:1005A00061F70E948802E9CF911551F38091B8015B
:1005B0009091B901A091BA01B091BB01C81AD90AB2
:1005C000EA0AFB0A86E0C816D104E104F104C0F28D
:1005D0001092BC01D5CF982F962B9430A8F44530BB
:1005E00098F4E42FF0E095E0699FE00DF11D1124EF
:1005F00094E1899FE00DF11D1124EE0FFF1FE152E0
:10060000FF4F85919491089581E090E008958430A2
:10061000A8F4623098F4E62FF0E0E80FF11DE80F3F
:10062000F11DEE0FFF1F81E04827E40FF11DEE0FD3
:10063000FF1FE154FF4F85919491089581E090E070
:10064000089581E0089581E008950E9421030895AE
:1006500081E0089581E0089581E008950E942C03CF
:100660000895089508950E94310308950895089506
:10067000A6E0B0E0EEE3F3E00C94AC2749835A83A4
:100680009E833091C20189819A8131111AC03E81C5
:10069000311599F0211589F00E941B09182F682F38
:1006A00089819A810E94E80869817A81812F0E945C
:1006B0004F102696E3E00C94C8270E940209182FD9
:1006C000F3CF0E941B0969817A81F1CFFC01262FAB
:1006D0004081518162817381848195810E943803B8
:1006E0000895CF93DF93D82FC92F61E00E9466034E
:1006F0006D2F7C2F0E942303811549F061E08D2F1F
:100700009C2F0E9466036D2F7C2F0E942503DF9192
:10071000CF9108950F931F93CF93DF93D82FC92FB5
:1007200060E00E9466038C016D2F7C2F0E943203D3
:100730006D2F7C2FC8010E943303DF91CF911F9151
:100740000F91089591E001C0990F8A95EAF7892FDA
:100750000E942D080895CF93C82F81E00C2E01C070
:10076000880F0A94EAF70E94960D8C2F0E94A2032C
:10077000CF91089581E0089581E008950E94BA0321
:100780000895CF93C82F0E94D9078C2F0E94BC03D5
:100790008C2F0E94BE032FEF84E39CE02150804009
:1007A0009040E1F700C00000CF91089581E00E94E1
:1007B000C1030E944020089580E00E94C1030E946E
:1007C000512008950F931F93CF93DF938C0161E025
:1007D0000E946603EC01B8010E942A03811509F406
:1007E00050C0B801CE010E942E03811509F449C002
:1007F000B801CE010E94581C811509F442C0B8010D
:10080000CE010E94721B8115E1F1B801CE010E9458
:100810008E168115B1F1B801CE010E9463168115C3
:1008200081F1B801CE010E94B41B811551F1B801CC
:10083000CE010E945F11811521F1F801858181159A
:1008400081F0CA35FCE7DF0739F178F4C130ECE715
:10085000DE07F9F0C330FCE7DF07C9F0C115DC475C
:1008600071F0C8010E9428030DC0CB35ECE7DE070C
:10087000B1F0CC35DC47A9F70E94680DF2CF0E9499
:10088000D60380E0DF91CF911F910F9108950E94D0
:10089000790D0E94DC03F5CF0E94710DE2CF0E941A
:1008A000750DDFCF0E9436030E94771F0E948904D6
:1008B00008950E948D040E9437030E947C1F0895B2
:1008C000982F92959F7024E0911102C020E0982FFC
:1008D000892F86958695811511F02E5F982F892F87
:1008E0008695820F089581E008950895CF93DF9350
:1008F000D82F0E947304C82F811519F08D2F0E94E4
:1009000075048C2FDF91CF91089508950E9476048D
:10091000089580E00E94860408950E945F1D0E9451
:1009200086040895CF930E945F1DC82F8091BD015A
:100930008C1779F0C093BD010E9410206093BE0116
:100940007093BF018093C0019093C1018C2F0E94CE
:100950008604CF910895ADE0B0E0E1EBF4E00C94B3
:10096000AD27488759876A877B878C879D87911138
:100970000E94740C1F8286E0FE013896DE011196FB
:1009800001900D928A95E1F78D8181110DC0298129
:100990003A814B815C816D817E818F810E94BE0B8B
:1009A0002D96E2E00C94C927CE0101960E947103B6
:1009B0008111EDCFF5CFFC018481813021F480815C
:1009C00091810E9444090895611529F00E94F4174D
:1009D0000E94B51808950E943D18FACFCF93C82FF2
:1009E000811599F08CEF8C0F813A88F48C2F0E943E
:1009F000031E811529F08C2F0E94AC1E0E940A0D47
:100A00008C2F0E94921E0E940A0DCF91089580E2C1
:100A10008C0F883048F4C77081E001C0880FCA95F8
:100A2000EAF70E94550CEFCF8BE58C0F833038F43A
:100A30002C2F2452330BC9010E94951DE6CFE8E507
:100A4000EC0FEB3150F4F0E0EE0FFF1FE35EFE4FD2
:100A5000808191810E94BB1DD8CF83E38C0F8331AD
:100A6000A0F661E08C2F0E94E404CFCF811581F1C4
:100A70009CEF980F913A28F40E94AC1E0E940A0D38
:100A8000089590E2980F983050F4877091E001C07B
:100A9000990F8A95EAF7892F0E945B0CEFCF9BE5AF
:100AA000980F933028F480E090E00E94951D0895FF
:100AB00098E5980F9B3128F480E090E00E94BB1DE0
:100AC000089593E3980F933118F460E00E94E404D2
:100AD00008950F931F93CF93C82F8B010E94EE04AC
:100AE0000115110539F48C2F0E943605CF911F9105
:100AF0000F9108958FE99FE00197F1F700C0000082
:100B000001501109EDCF60E570E0893311F060E02C
:100B100070E00E9469050895811521F00E94550C2E
:100B20000E940A0D0895811521F00E945B0C0E941D
:100B30000A0D0895A0E0B0E0E0EAF5E00C94A727E4
:100B40006C01D62FC72FFC011581068102950F700D
:100B50000E944A0CE82E8115F9F0E12E1115E1F002
:100B60008C2F807F803461F080E28D0F8830F0F030
:100B70008C2F807E803221F4D230C0F00115B1F08C
:100B80008091AC0282FF12C082E00E943B0D0E9465
:100B90004A0C91E0E82EE926EC2FE295EF70C03C7C
:100BA000B0F5F0E0EE5AF74D0C949027E12CF4CF1D
:100BB0000C2F0F70C03110F00295007F111599F0C5
:100BC000011559F080E28D0F883010F0D11107C067
:100BD000802F0E94550C0E940A0D8D2F4EC0802F31
:100BE0000E94660CF8CF8D2F0E943605011579F012
:100BF00080E28D0F883010F0D11104C0802F0E9448
:100C00005B0C03C0802F0E946C0C0E940A0DE11443
:100C100009F4C6C00E94460C80FDC2C0F6011582D0
:100C20000E94400C0E945708C6010E94A0070E9423
:100C3000400C0E946308B4C0FC2FFF70FF2EC07FE1
:100C4000C03219F0F29480EFF822D11541F0D13082
:100C5000C9F1111509F443C00115E9F0BECF809127
:100C6000AC0282FD14C0111559F0F11429F08F2D3A
:100C70000E94550C0E940A0D80E00E94EE04C7CF2E
:100C800080E00E943605F11411F28F2DB8CF1115B6
:100C900069F0011104C08F2D0E948C05B8CF01307E
:100CA00009F0B5CF8F2D0E948C0CB1CF0111AFCFC1
:100CB0008F2D0E9493058F2D0E94980C8F2D0E94DE
:100CC0007B0CA5CF111521F0063008F0A0CFE3CFA3
:100CD000053008F09CCF8F2D0E94930598CF011509
:100CE000D1F3D93349F42FEF87EE93E021508040C0
:100CF0009040E1F700C000008D2F0E94360587CF9D
:100D00008C2F869586958370811569F0813009F066
:100D10007ECF8D2F9C2F9370111102C080E090E048
:100D20000E94BB1D74CF8D2F9C2F9370111102C098
:100D300080E090E00E94951D6ACF612F8D2F0E9468
:100D4000E40465CF8C2F8370811138C0111124C049
:100D50004D2F429546954770440F440F8D2F8F704D
:100D6000042E01C0880F0A94EAF72D2F2071D4FFBA
:100D700007C02FE030E001C0220F4A95EAF7209526
:100D8000C695C695C370822BC23091F0C33099F0DE
:100D9000C13059F00E9436080E945F1D0E948604EF
:100DA000CDB7DEB7E8E00C94C3270E943008F4CF3B
:100DB0000E943C08F1CF0E942D08EECF111539F1A9
:100DC000C0FFEACF4D2F429546954770440F440F20
:100DD0008D2F8F70042E01C0880F0A94EAF72D2FF3
:100DE0002071D4FF07C02FE030E001C0220F4A95E8
:100DF000EAF72095C695C695C370822BC23069F07C
:100E0000C33071F0C13031F00E948508C5CF823007
:100E100018F2D8CF0E947F08BFCF0E948B08BCCFAA
:100E20000E944508B9CFCF70111539F08C2F0E9460
:100E300057088D2F0E948C05AFCF8D2F0E949305F0
:100E40008C2F0E946308A8CFD23F41F170F4D03FAD
:100E5000C9F0D13F91F0111509F446C0011509F40C
:100E600040C08D2F0E94EE0497CFD33FF1F0D43FC6
:100E700091F78091AC0282FD22C08C2F8F711115E9
:100E800001F310C0111541F0053008F085CF8C2F0B
:100E90008F710E94730880CF0630F7CF8C2F8F712F
:100EA0001111CFCF0E94570877CF111529F08C2F41
:100EB0008F710E944E0870CF0E944A086DCF1115A5
:100EC00031F063E08C2F8F710E941C0D65CF81E0A3
:100ED0000E943B0D023008F45FCF82E00E943B0D80
:100EE0005BCF8C2F8F71DECF011579F0D93349F4A8
:100EF000EFEFF7EE23E0E150F0402040E1F700C0D3
:100F000000008D2F0E94360547CF8C2F8F7199CF0F
:100F10000F931F93CF93DF93EC01688179818D81CB
:100F20000E9451098C010E9491080E942C08B8016E
:100F3000CE010E949A05DF91CF911F910F910895E4
:100F4000CF93DF93EC018C81811599F0CE010E9443
:100F5000E203811111C00E944A0C811551F08D816C
:100F6000811539F08091AC0282FF03C082E00E94BB
:100F70003B0DDF91CF910895CE010E948807CE01ED
:100F80000E948A03F6CF80E090E00E94951D80E0E9
:100F900090E00E94BB1D0E94740C0E940A0D0E94EA
:100FA000D2180E94B51808950E94C61E0E94C30759
:100FB00008950E94630C0E94D4070895282F9295EB
:100FC0009F70963099F060F4925F9F70923030F489
:100FD000203FB1F038F481E0283E38F080E00895F9
:100FE0009A5FF3CF81E0243FC9F7089591E0813FF4
:100FF00009F090E081E0283E08F080E0892B089518
:1010000081E00895FC018481811539F0808191810E
:101010000E9444090E94DE07089580E00895A6E03A
:10102000B0E0E5E1F8E00C94AD272696E2E00C9400
:10103000C927A7E0B0E0EFE1F8E00C94AD272796D0
:10104000E2E00C94C92708950E94230808950E94A5
:1010500024088093D001089508950E9427080895D8
:101060009091D001892B0E94270808959091D0017A
:1010700089230E94270808959091D00189270E9412
:10108000270808950E942A0208950E94420880932A
:10109000CF01089580E00E944508089591E001C0C5
:1010A000990F8A95EAF7892F0E944508089521E053
:1010B00030E001C0220F8A95EAF78091CF01822BA0
:1010C0000E944508089521E030E0A90102C0440FC4
:1010D000551F8A95E2F7CA0180959091CF01892327
:1010E0000E944508089521E030E001C0220F8A9552
:1010F000EAF78091CF0182270E94450808959091D8
:10110000CF01892B0E94450808959091CF01892332
:101110000E94450808959091CF0189270E944508B3
:10112000089508959B01677091E001C0990F6A9539
:10113000EAF763E0369527956A95E1F7B901660FFE
:10114000771F260F371FFA01E20FF31F40E050E030
:10115000682F70E08191DF019B01042E02C036955B
:1011600027950A94E2F7217021952827292328271B
:101170002E934F5F5F4F4330510561F708959C01F7
:10118000A82FA77083E0369527958A95E1F7C901C6
:10119000880F991F820F931FFB01E80FF91F40E092
:1011A00050E080E0219130E00A2E02C0369527956C
:1011B0000A94E2F721703327042E01C0220F0A940B
:1011C000EAF7822B4F5F5F4F4330510559F708957F
:1011D000282F862F943070F4253058F4622F70E059
:1011E00025E0929F600D711D112446EC51E00E9494
:1011F000920808959C5F9230E0F7622F70E043EC14
:1012000051E0F5CF292F943068F4853090F490E0C8
:1012100066EC71E035E0239F800D911D11240E9442
:10122000BF0808952C5F223020F463EC71E090E059
:10123000F6CF80E00895A0E0B0E0E1E2F9E00C94A0
:10124000A8277C010091CF018091D001082BC3E039
:10125000D0E010E0C8010C2E02C0959587950A9445
:10126000E2F780FD09C02197A8F7D12C8D2DCDB7CD
:10127000DEB7E7E00C94C427DC2EB7018C2F0E9468
:101280006810019781F3F2CFCF93DF93D82FC92F46
:101290000E941B096D2F7C2F0E946810DF91CF9157
:1012A00008951F93CF93DF93162FD72F9091C201EC
:1012B000911541F0862F972F0E944409DF91CF911D
:1012C0001F910895811581F0862F972F0E941B0989
:1012D000C82F682F812F9D2F0E94E808612F7D2F36
:1012E0008C2F0E946810EACF862F972F0E94020948
:1012F000C82FF4CFE1E0F0E0DF0102C0AA0FBB1F6E
:101300006A95E2F7BD01DF0102C0AA0FBB1F4A9533
:10131000E2F76A2B01C0EE0F2A95EAF7962F982381
:10132000961302C08E2B0895E0958E230895242FE6
:10133000462F682F8091CF010E947A090E944508AC
:1013400008950F931F93CF93E091D101C7E080914F
:10135000D2018E1304C0CF911F910F9108950E2FCB
:1013600010E0CE9FF0011124ED52FE4F208131811B
:10137000428153816481758186810E941908F80138
:101380003196E770E4CF20910B0230910C0240912E
:101390000D0250910E0260910F0270911002809127
:1013A00011020E941908089580911102803178F489
:1013B00080911002811559F0E091D1012091D20164
:1013C00030910C0240910B0257E02E1301C008959A
:1013D0006E2F70E05E9FF0011124DF01AD52BE4F11
:1013E00014968C911497811561F111968C91119737
:1013F000831327C08C91841324C015968C91159764
:1014000081111FC012968D919C91A0910D02B091F7
:101410000E028A1B9B0B883C910598F48091110267
:101420008F70806180931102E752FE4F80818F7030
:10143000806180838BE092E00E94A0070E94A10956
:101440000895FB013196E770C0CFE091D1019091F2
:10145000D20127E0E91302C080E00895AE2FB0E08A
:101460002E9FF0011124ED52FE4F3181361306C03C
:101470003081381303C03581341304C0FD01319627
:10148000E770E8CF81E008958F929F92AF92BF926C
:10149000DF92EF92FF920F931F93CF93DF93CDB71D
:1014A000DEB72D970FB6F894DEBF0FBECDBF8C010F
:1014B00086E0F801DE01189601900D928A95E1F719
:1014C000F801F58084819BE0892E92E0992E90911D
:1014D0000F0291111BC0811509F4FFC0F11409F42A
:1014E00040C1C8010E940208811509F43AC187E091
:1014F000F801D40101900D928A95E1F7C4010E9490
:10150000DB040E94D4090E94C309E7C0E080A280E6
:10151000B380D090100220910D0230910E02A501EF
:10152000421B530BD11409F4DBC0483C510508F0B1
:10153000A6C0811509F4D1C090910C0291808091D0
:101540001102803108F06BC0991228C090910B02F3
:101550009E1124C0F1105DC08F70806180931102D4
:101560000E94C3098BE092E00E94A00780911102C3
:10157000F8018683F12C8F2D2D960FB6F894DEBFDF
:101580000FBECDBFDF91CF911F910F91FF90EF90D4
:10159000DF90BF90AF909F908F900895F11039C069
:1015A00040E0692D8E2D0E94250A40E0692D8E2D88
:1015B0000E94250AF82E8111DDCF888599850E9429
:1015C0004409292F22952F70903450F49F702230B7
:1015D00080F0911599F0F8019681903178F4CBCF95
:1015E0002A5F2F70223078F0C8010E94A007FD2CDE
:1015F000C2CF911519F0811509F4BDCF805E8830F6
:1016000008F4B9CFF1CF803F08F4B5CF815F8330C4
:10161000F7CF80911102816080931102ABCF9912B4
:1016200007C090910B029E1103C0F11409F479C018
:10163000C8010E940208811509F493C0F11409F44D
:1016400090C080911102803288F020910B0230917D
:101650000C023A832983BC82AB8290910F029D8356
:101660001E828F83CE0101960E94A00787E0F801B9
:10167000ABE0B2E001900D928A95E1F742CF9091F4
:1016800011029031A0F4488559856A857B858C8547
:101690009D850E940F088BE092E00E94A00787E0E2
:1016A000F40111928A95E9F70E94C30963CF81156D
:1016B000A1F020910C0281812813BACF80910B02F6
:1016C0008E11B6CFF110B4CF9683C8010E94A00747
:1016D00087E0F40111928A95E9F7FF24F3944BCF48
:1016E000483C510508F041C08115B9F3F114C9F126
:1016F00090910C02818198132AC080910B028E1167
:1017000026C08091110280FD19C08031B8F0868317
:10171000807F803F39F08681982F907F905F8F7017
:10172000892B8683C8010E94A00787E0F801ABE0FF
:10173000B2E001900D928A95E1F7E5CE87E0F801DD
:10174000ABE0B2E001900D928A95E1F7C6CFC801F7
:101750000E94020881118ACF8091110281608093DA
:101760001102C8010E94A007B8CF488559856A8533
:101770007B858C859D850E940F0891CFAEE0B0E0FF
:10178000E4ECFBE00C94AC27288739874A875B8719
:101790006C877D878E87CE0108960E94440A6C85EF
:1017A0008115A9F0611541F0288539854A855B8549
:1017B0007D858E850E94190817E08091D101909156
:1017C000D20189133AC02E96E3E00C94C82787E033
:1017D000FE013896DE01119601900D928A95E1F78F
:1017E000611551F3A091D2018A2F90E00196877084
:1017F00099272091D1012817190689F097E09A9F1F
:10180000D0011124AD52BE4FFE01319601900D92D0
:101810009A95E1F78093D2010E94A109CDCF0E9451
:10182000D9071092D2011092D10187E0EBE0F2E0EB
:10183000DF011D928A95E9F7BFCF189FC0011124DF
:101840008D529E4F0E94440A811509F4BCCFE0914D
:10185000D1011E9FF0011124ED52FE4F20813181F4
:10186000428153816481758186810E94190880912B
:10187000D10190E00196877099278093D1019DCF87
:1018800080913A02869586958695089580913A02D0
:101890008770089590913A02977081E0911101C08C
:1018A00080E0089580916602089590916602982BD9
:1018B000909366020895982F9095809166028923EF
:1018C00080936602089510926602089590916502D1
:1018D000982B909365020895982F909580916502BA
:1018E00089238093650208951092650208950895F2
:1018F0000E94770C089590913B02292F28232115EF
:1019000031F08095892380933B020E94780C0895E2
:1019100008950E94880C089590913C02292F282355
:10192000281729F0982B90933C020E94890C089567
:1019300090913C02292F2823211531F0809589238D
:1019400080933C020E94890C089580913C0281158D
:1019500029F010923C0280E00E94890C0895CF93F8
:10196000C091660280916502C82B80913C0281156E
:1019700031F0C82B0E94E11D81110E94A50C8C2F13
:10198000CF910895CF93DF93C0910201D0910301CD
:101990000E94AF0C8883C0910201D091030148E0FE
:1019A00050E062E372E0CE010E94E827892B59F0F3
:1019B00088E0FE01A2E3B2E001900D928A95E1F782
:1019C000CE010E946C1DDF91CF910895CF93DF93DC
:1019D000C0910001D09101010E94AF0C8983C09198
:1019E0000001D091010140E250E062E172E0CE01DD
:1019F0000E94E827892B59F080E2FE01A2E1B2E0C3
:101A000001900D928A95E1F7CE010E94771DDF913A
:101A1000CF9108950E94521F813039F48091AB021A
:101A200087FF03C00E94E60C08950E94C20C08952F
:101A300008950E94180D0895962F2091AC0222FF60
:101A400011C0682F660F660F660F692B60933A020C
:101A50000E94570880913A028695869586950E9445
:101A6000190D08950E945708089510923A0280E0D7
:101A70000E94190D089590913A02809589238093D0
:101A80003A02282F277021110DC0891759F0909123
:101A9000AC0292FF07C08695869586950E946308E2
:101AA0000E94350D08959091AC0292FB222720F9F7
:101AB000281769F080FB92F99093AC028091AB02F9
:101AC0009091AC020E94A10D82E00E943B0D08950E
:101AD0008091AC02002482FF0394802D0E94530D5C
:101AE000089581E00E94530D089580E00E94530DF7
:101AF00008956FEF7FEF80E090E00E943A2808950C
:101B000080E090E00E940628853E9E4F19F40E94D6
:101B1000EF1B089580E0089582E090E00E94FE2788
:101B2000089583E090E00E94FE270895682F83E0E7
:101B300090E00E941C28089584E090E00E9406280E
:101B40000895BC0184E090E00E943A280895AB011A
:101B5000BC018FE090E00E942E280895AB01BC01EB
:101B600083E190E00E942E28089560E070E0CB01B0
:101B70000E94AE0D089560E070E0CB010E94A70DB9
:101B80000E94B50D0895A8E0B0E0E9ECFDE00C94EA
:101B9000AD2765EE7EEF80E090E00E943A2860E09D
:101BA00082E090E00E941C2881E08093D0010E9496
:101BB000960D60E074E184E090E00E943A2860E0D5
:101BC00086E090E00E941C2860E087E090E00E94A0
:101BD0001C2840E050E0BA0188E090E00E942E28E6
:101BE00060E083E290E00E941C2860E08CE090E0DE
:101BF0000E941C2860E08DE090E00E941C28198261
:101C00001A821B821C821D821E821F82188648E057
:101C100050E067E170E0CE0101960E940C2840E0A0
:101C200050E0BA018FE190E00E942E2880E00E94EF
:101C3000081C0E943A1C0E94BB0D2896E2E00C94FE
:101C4000C9270E94C30D0895682F8EE090E00E947E
:101C50001C280895A6E0B0E0E0E3FEE00C94AB277A
:101C60000E9404208C018091670290916802801785
:101C7000910779F019821A820E940420BC014981DF
:101C80005A8180E090E00E94AB04109368020093B8
:101C900067022696E4E00C94C7270E941020609308
:101CA0007502709376028093770290937802609326
:101CB000710270937202809373029093740208957C
:101CC0000E941020609375027093760280937702D1
:101CD0009093780260936D0270936E0280936F020E
:101CE000909370020895089508950E94730E0895C8
:101CF00008950E94780E0E94750E08950E941D029C
:101D0000089508950E94810E0E947E0E08958DE52B
:101D100091E10E94C9120E94740E0E94790E0895EA
:101D200081E0089581E008950E94900E089508953D
:101D3000089508950E94970E0E94980E0E94990E91
:101D400008950E94800D811102C00E94210E0E9400
:101D50008C0D809379020E949C0D9093AC0280932D
:101D6000AB020E947B140E94910D0E942D0880916D
:101D7000CF010E94420808950E94FB1F0E944A1C46
:101D80000E94D1120E9419120E94A10E0E94850485
:101D90000E94820E0895A6E0B0E0E1EDFEE00C9412
:101DA000A4270E94920E81110FC00E942A0E0E9449
:101DB000381381110E94600E0E94F3180E94920451
:101DC0002696EBE00C94C0270E942F1289E6A82EDD
:101DD00082E0B82E750110E0F70101917F01812F9B
:101DE0000E9478111F5F143009F442C00817A1F354
:101DF0008091790281FD0E947E110E94940EC82E6E
:101E000000E099249394802F0E947811182FF501F7
:101E100091915F01891731F1D82ED926F12CEE244A
:101E2000E3948D2D8E218115B1F0C114A1F0F982BA
:101E30000A830E9404209C838B839D8291E0812FE2
:101E40008E21811101C090E049815A816B817C8192
:101E50008D810E94AB04F394EE0CF5E0FF12E1CF0C
:101E6000F50112930F5F043071F60E944D0E9FCF63
:101E70000813BECF9ACF1F93CF93DF930E946D10AC
:101E8000EC01811522E5920708F05DC0811540E55F
:101E9000940708F0DBC0803E910528F58D3C910544
:101EA00008F0ACC0883A910578F4853A910508F0BD
:101EB000A2C08130910509F441C00497813A91058F
:101EC000E8F1C0E0D0E03AC0885A91094B97C8F7D2
:101ED000C85AD0E0CC0FDD1FCD5ADE4F0990D88113
:101EE000C02DD4642BC0811550E49507F8F4C115BA
:101EF00080E2D80708F0C0C0C83ED105F8F0CE0196
:101F00009A9581159F41E8F68D2F0E940E11182F8A
:101F1000CE0199270E946D10212F30E0322F222709
:101F2000E901CC27DF71C82BD92B08C099270E9463
:101F30006D10CC27DF70C82BD92BD06ACE01DF9172
:101F4000CF911F910895803842E59407C8F58036F7
:101F500052E5950708F05BC0C03482E5D807D0F49D
:101F6000C03292E5D90708F04BC08C2F8695869534
:101F700020E2829FC0011124C37021E030E0A9015A
:101F800002C0440F551FCA95E2F7EA01C82BD92BAE
:101F9000DD68D4CF8C2F86958695877050E2859F1B
:101FA000C0011124C37021E030E0A90102C0440F38
:101FB000551FCA95E2F7EA01C82BD92BDC68BECFC2
:101FC000803C52E5950758F48F71C03AD245A0F590
:101FD00090E0982F8827EC01C46FD06AAFCF805C67
:101FE0009245809708F06DCFDC2FCC27CC27DF718E
:101FF000C06FD06AA3CFA497D064A0CFD0659ECF86
:10200000CF71D0E0DC2FCC27C16FD06A97CF8695F7
:102010008695877020E2829FC0011124C37021E061
:1020200030E0A90102C0440F551FCA95E2F7EA014A
:10203000C82BD92BDA6882CF0E940E11C82FD0E0AE
:10204000DC2FCC27CC27DF71D06278CF8F710E9434
:102050000E1153E0CC0FDD1F5A95E1F7CC27DF704E
:10206000282F30E084FF04C050E1859F90011124A7
:10207000C22BD32BD06962CF8D2F8F710E940E118E
:10208000182FCE0199270E946D10212F30E0322F9A
:10209000222722273F71282B392BE901D5CF743015
:1020A00038F4653050F4462F672F0E94C715089505
:1020B0007D3F31F441E0623040F080E090E00895EF
:1020C0007C3FD9F76230C8F740E00E94D3150895ED
:1020D0000E944F100E943B0F08959C01803E910585
:1020E00009F448C0D8F48133910509F47DC048F45F
:1020F0008932910509F46DC08A9709F47CC0C90141
:1021000008958933910551F18238910539F1C597C8
:10211000B1F78091AB0285FFF2CF29C0843E9105D3
:1021200009F447C048F4823E910599F1833E910538
:10213000A9F121EE30E0E3CF863E910509F444C0D9
:10214000873E9105E1F68091AB0283FD61C09091DD
:10215000AC0291FF2BC024EE30E0D1CF8091AB02D6
:102160008370811152C08091AC0283FFC8CF29E2F5
:1021700030E0C5CF8091AB0280FD33C09091AC02BE
:1021800090FFBDCF23EE30E084FFB9CF20E030E0F8
:10219000B6CF8091AB0282FDF5CFB1CF8091AB027B
:1021A00082FD30C09091AC0290FD2FC084FFA7CF7C
:1021B000EDCF8091AC0281FFA2CF8091AB0227EEE0
:1021C00030E084FDE3CF9BCF8091AB0283FDF7CF5E
:1021D00096CF8091AB0285FD1EC08091AC0283FF3B
:1021E0008ECF29E330E08BCF8091AB0286FF87CF83
:1021F0002AE230E084CF8091AB0286FF80CF21E3DA
:1022000030E07DCF22EE30E07ACF20EE30E077CFA5
:1022100026EE30E074CF25E330E071CF9091AB0231
:1022200092FF10C041E0282F2471243009F040E0D3
:1022300031E0282F2871283009F030E0431711F0E1
:102240002CE0822793FF10C041E0282F2471243115
:1022500009F040E031E0282F2871283109F030E002
:10226000431711F02CE082273091AC0230FF10C0F0
:1022700051E0282F2171213009F050E041E0282F52
:102280002871283009F040E0541711F029E0822726
:1022900031FF10C041E0282F2171213109F040E0C9
:1022A00031E0282F2871283109F030E0431711F070
:1022B00029E0822794FD877E089580E00895CF93DA
:1022C0009C01FB01805E9245C1E0809738F4C58196
:1022D000C11104C0822F8F710E94AB038C2FCF914C
:1022E000089508950E94711108950E94950208951D
:1022F000E82FF0E0EF54FD4F80810895089580EAC3
:102300008A95F1F7089500C008950E947F110895FD
:10231000F894E82FE295EF70F0E041A18F7021E092
:1023200030E0B90102C0660F771F8A95E2F7CB0152
:10233000962F9095942391A392A1892B82A37894B0
:102340000895CF93DF9387E60E94881180E90E9469
:10235000881181E90E94881182E90E948811C9E8E8
:10236000D1E089918F3F11F00E94881181E0CE3831
:10237000D807B9F7DF91CF910895A0E0B0E0E3EC82
:10238000F1E10C94A727EC01D62E062F10E0C8012E
:1023900082579E4F7C01FC0180818F3F09F444C02D
:1023A000F894E82FE295EF70F0E091A18F7021E0B2
:1023B00030E001C0220F8A95EAF7892F822B81A392
:1023C00082A12095282322A378940E948311A9E852
:1023D000B1E091E0C12C8D918F3F79F0E82FE2952B
:1023E000EF70E05EF0E0208130E08F7002C0359544
:1023F00027958A95E2F7892F20FD80E0C82A990F5A
:10240000F1E0AE38BF0739F7F70180818F3F11F057
:102410000E94881161E0C11001C060E08D2D0E9412
:102420008511C00FD11FC882CDB7DEB7E8E00C948C
:10243000C3270E94A11184E0E1EBF2E0DF01982FB5
:102440001D929A95E9F7EDEAF2E0DF011D928A9577
:10245000E9F784E00E946F120E9472110895A4E0CF
:10246000B0E0E5E3F2E10C94AA27FE01319684E0A6
:10247000DF011D928A95E9F710E0FE2E0F2F612FE4
:102480008F2D902F0E94BD111F5F1430C1F744E0C3
:1024900050E06F2D702F8DEA92E00E94E82721E036
:1024A000892B81F420E044E061EB72E08DEA92E058
:1024B0000E947012182F0E947511812F2496E5E05A
:1024C0000C94C62789819A81AB81BC818093AD022F
:1024D0009093AE02A093AF02B093B002E4CF089500
:1024E000A0E0B0E0E6E7F2E10C94A727D82EE92EB1
:1024F000F62ED72F042FC22F211579F081E080937B
:102500007C020E94042090937B0280937A0280E0F8
:10251000CDB7DEB7E8E00C94C327C0907C02C114AD
:10252000B1F380917A0290917B020E94931F0597EC
:1025300070F310E0A8016D2D7E2D8F2D9D2F0E9430
:10254000E827892B41F0A8016D2D7E2D8F2D9D2F21
:102550000E94F527CC2D10927C028C2FD9CF0E949F
:10256000CB0E08950E949D1F0E94EA210E94870EB3
:102570000E9404220E94BC0E0E9411220E94162278
:102580000E94AF120E9430220E94B7200E949A0E31
:10259000F5CF9093B7018093B60108950E94900EF5
:1025A0000895EEE7F2E088E0DF011D928A95E9F7F1
:1025B0000E9405140895FC01228130E02F5F3F4FF7
:1025C00023703327938181E09217130609F080E08E
:1025D00008950F931F93CF93DF93EC01162F042FD1
:1025E0000E94DB12811113C08A81FE01E80FF11DE8
:1025F00000FB17F914838F5F83708A8388818F5F54
:10260000888381E0DF91CF911F910F91089580E041
:10261000F9CFCF93DF93FC01EA01A38182818A176E
:10262000B9F0AE0FBF2FB11D14968C9187FB99277F
:1026300090F98F77DB018C93988383818F5F837010
:10264000838381818F5F818381E0DF91CF910895C2
:1026500080E0FBCF462F682F8EE792E00E94E912C0
:102660000895AB01BC018EE792E00E940913089522
:10267000AEE0B0E0EEE3F3E10C94A72780917D0299
:10268000811551F010927D02809180028093810229
:1026900080917E0280937F020E9443140E94CE129A
:1026A000E82E811571F1E12C0CEF8DEFF82E1FC093
:1026B000CD84DE84D982C11449F1FA820E940420BB
:1026C00032E0E32EBC0149815A818E2D91E00E94B7
:1026D000AB04DF82C11401F1F8860E940420BC0122
:1026E0004F8158858E2D90E00E94AB04E12EBE01F3
:1026F000635F7F4FCE010E960E943113182F811118
:10270000D7CF8E2D2E96E8E00C94C3270A830E9423
:10271000042023E0E22ED6CF0887DFCF8FE891E0B8
:102720000197F1F700C00000089590E06115E9F00D
:102730008E559E4FFC0180818F3FB1F0E82FE295CE
:10274000EF70F0E041A18F7021E030E0B90102C0EC
:10275000660F771F8A95E2F7CB01962F9095942309
:1027600091A392A1892B82A308958C559E4FE2CF0D
:1027700090E06115A9F08E559E4FFC0120812F3FFE
:1027800091F0E22FE295EF70E05EF0E0808190E062
:102790002F7002C0959587952A95E2F7817008956C
:1027A0008C559E4FEACF80E008950895CF93DF9334
:1027B000C0E080918602C81760F00E948E13C0E0CE
:1027C00080918602C81778F00E94D513DF91CF91CF
:1027D000089560E08C2F0E94951361E08C2F0E9479
:1027E0009513CF5FE6CF60E08C2F0E94B813D82FEF
:1027F00061E08C2F0E94B813EC2FF0E0E757FD4FFB
:10280000880F8D2B8083CF5FDBCF82E080938602A1
:102810000E94D61308951F93CF93DF93182F440F70
:10282000642BC82FD0E0DE01A757BD4FEC918E2F4F
:102830008370681721F1EE0FEE0FE62BEC93EF702B
:10284000F0E0EE56FE4FC957DD4F90818881980F1A
:102850009883943024F060E0812F0E942A138881AD
:102860008D3F24F461E0812F0E942A138881082E75
:10287000000C990B64E070E00E947C278883DF9154
:10288000CF911F910895CF93DF93C0E0809186028E
:10289000C81718F0DF91CF91089561E08C2F0E9446
:1028A000B813D82F60E08C2F0E94B813682F4D2FDB
:1028B0008C2F0E940B14CF5FE9CF0E94790D0895F1
:1028C00080E00E947811817008950E942F122FEFEE
:1028D00086E791E0215080409040E1F700C0000081
:1028E0000E942F120E946014811521F00E945D1435
:1028F0000E94402008950E94651408950F931F932D
:10290000CF93DF938C01FC01C081D181CE010E9465
:10291000FE272196F801D183C083DF91CF911F91CB
:102920000F91089584E0089550E0440F551F9AE0F8
:10293000699F400D511D112498E2899F400D511D42
:102940001124CA01889608950F931F93CF93DF93A4
:10295000982F962B9430B8F44530A8F40E94941424
:102960008C010E94FE27C82FD0E0DC2FCC27C801A5
:1029700001960E94FE279E01282BC901DF91CF916D
:102980001F910F91089580E090E0F8CF0F931F936F
:10299000CF93DF93122F032F982F962B943068F448
:1029A000453058F40E949414EC01602F0E941C28BA
:1029B000612FCE0101960E941C28DF91CF911F91BB
:1029C0000F910895FF920F931F93CF93DF93F42EEF
:1029D000843070F5623060F528E0829FE0011124B8
:1029E00034E0639FB0011124C60FD71FC853DF4FD7
:1029F00081E084279E01280F311D280F311DC90158
:102A00000E94FE27082F10E0102F002781E090E0A1
:102A1000F11002C083E090E08C0F9D1F0E94FE2702
:102A20009801282BC901CDB7DEB7E5E00C94C62785
:102A300080E090E0F8CF0F931F93CF93DF93962F12
:102A4000142F022F632F843018F5923008F528E0F8
:102A5000829FE001112434E0939FC0011124C80F2C
:102A6000D91FC853DF4F81E084279E01280F311DF5
:102A7000280F311DC9010E941C2881E090E011112E
:102A800002C083E090E0602F8C0F9D1F0E941C28E5
:102A9000DF91CF911F910F9108951F93CF93DF93F3
:102AA000C0E0D0E011C0412F6D2F8C2F0E94EB02AF
:102AB0009C01412F6D2F8C2F0E94C6141F5F153073
:102AC00091F7DF5FD43011F010E0EDCFD0E041E0BE
:102AD0006D2F8C2F0E9407039C0141E06D2F8C2FDE
:102AE0000E941B1540E06D2F8C2F0E9407039C0154
:102AF00040E06D2F8C2F0E941B1581E08D0FD1E0DF
:102B0000823029F7CF5FC43061F6DF91CF911F91FA
:102B10000895EF92FF920F931F93CF93DF938C0151
:102B2000EA017A01E60EF71ECE15DF0529F4CDB7CE
:102B3000DEB7E6E00C94C52780E0003A110520F4EA
:102B4000C80188960E94FE2789930F5F1F4FECCF24
:102B5000EF92FF920F931F93CF93DF938C01EA01C3
:102B60007A01E60EF71ECE15DF0529F4CDB7DEB7E4
:102B7000E6E00C94C527003A110528F46881C801E5
:102B800088960E941C2821960F5F1F4FECCF982F2C
:102B9000962B943028F4453018F40E94A41408951C
:102BA00080E090E00895843028F4623018F40E94A8
:102BB000E214089580E090E0089580E8089588E1A7
:102BC00093E00895EF92FF920F931F93CF93DF93BB
:102BD0008C01EA017A01E60EF71ECE15DF0529F415
:102BE000CDB7DEB7E6E00C94C527083183E01807BF
:102BF00048F4C80188519F4F0E94FE2789930F5FB8
:102C00001F4FEBCF80E0FACFEF92FF920F931F930D
:102C1000CF93DF938C01EA017A01E60EF71ECE1501
:102C2000DF0529F4CDB7DEB7E6E00C94C5270831FF
:102C300083E0180730F46881C80188519F4F0E94D3
:102C40001C2821960F5F1F4FEACFCF93DF93C8EE6A
:102C5000D0E060E0CE010E941C282196C11584E0DE
:102C6000D807B9F7DF91CF910895A2E0B0E0EBE388
:102C7000F6E10C94AA27F82E87FD14C08FEF93E09D
:102C80000E94FE2781110EC008EE10E0F1100EC068
:102C90001A83098340E0BE016F5F7F4F8EE794E1A6
:102CA0000E94811A2296E5E00C94C627011584E063
:102CB0001807C1F3C8010E94FE270F5F1F4F811143
:102CC000F5CFFA94E3CFCF93DF93EB0186319C47A6
:102CD00019F50E94520C9D819115A1F08A7A91E01C
:102CE000811101C090E090938B02811549F085E33A
:102CF0000E94921E0E940A0D80E0DF91CF910895FC
:102D000089E2F6CF80918B02811521F085E30E9444
:102D1000AC1EF0CF89E2FBCF81E0EFCFCF93DF9302
:102D2000EC01FB018581811509F4CFC09E0130576C
:102D30002332310508F0AFC00E949C0D9093AC0285
:102D40008093AB02FE01E150F047E232F10520F43E
:102D5000E25AF74D0C9490278091AB0281608093EA
:102D6000AB0290C08091AC0288608093AC028AC0B4
:102D70008091AB028260F3CF8091AB028460EFCF91
:102D80008091AB028860EBCF8091AC028160EDCF87
:102D90008091AC028260E9CF8091AB028061DFCF8D
:102DA0008091AB028062DBCF8091AB028064D7CF91
:102DB0000E94D9078091AB028068D1CF8091AB028D
:102DC0008C60CDCF8091AC028360CFCF8091AB027D
:102DD0008E7FC5CF8091AC02877FC7CF8091AB0239
:102DE0008D7FBDCF8091AB028B7FB9CF8091AB023D
:102DF000877FB5CF8091AC028E7FB7CF8091AC0238
:102E00008D7FB3CF8091AB028F7EA9CF8091AB0233
:102E10008F7DA5CF8091AB028F7BA1CF0E94D90778
:102E20008091AB028F779BCF8091AB02837F97CF4E
:102E30008091AC028C7F99CF8091AB02992782FF61
:102E4000939590FB82F990FB83F989CF8091AC0236
:102E5000982F909590FB80F990FB81F986CF909107
:102E6000AB02892F8F7B96FF806479CF0E94D907B0
:102E70009091AB02892F97FB87F9805870CF81E042
:102E80000E94240E8091AB029091AC020E94A10D91
:102E90000E94D90780E0DF91CF91089580E0F0CFC4
:102EA0009091AB02892F8F7E94FF806158CF9091D3
:102EB000AB02892F8E7F90FF816051CF9091AC0241
:102EC000892F877F93FF886050CF81E0E4CF282F40
:102ED00035EB2303C001112497FF04C080589109EA
:102EE000892F089580589F4FFBCF8091920280FFD9
:102EF0000DC06091090170E0660F771F60387105A1
:102F0000B0F561157105A9F1862F089581FF07C0FD
:102F10006091090184E0689FB0011124EFCF82FF26
:102F200004C06091090188E0F6CF9091910291155B
:102F3000D9F02091080180910901682F70E0921763
:102F400030F043E0660F771F4A95E1F7D7CF899FAE
:102F5000C001112433E0880F991F3A95E1F7622FE1
:102F600070E00E947C27CACF68E070E0CDCF8FE789
:102F7000089581E008958091920280FF0CC06091D5
:102F8000050170E0759567957595679561157105F3
:102F900049F1862F089581FF06C06091050170E018
:102FA00075956795F3CF6091050182FD0BC09091F7
:102FB00090029115A1F0609104018091050196178E
:102FC00038F0682F70E06038710500F38FE70895DE
:102FD000899FC001112470E00E947C27F4CF61E03A
:102FE00070E0D7CF81E00895E3E3E80FE331E0F547
:102FF000F0E0E058F74D0C9490270E9475178195EA
:103000008093960208950E947517FACF0E94751753
:1030100081958093950208950E947517FACF0E94BA
:10302000BB178093970208950E94BB178195F9CF33
:103030000E94BB1781958093980208950E94BB1748
:10304000FACF815D990B21E030E001C0220F8A9513
:10305000EAF780919402822B8093940208958091E4
:103060009202816080939202089580919202826020
:10307000F9CF809192028460F5CF409195028D3C0A
:1030800059F48091960287FF0DC010929602411567
:1030900059F41092910208C08E3C81F480919602FE
:1030A00018169CF3411581F0809197029091980237
:1030B000892B811159C01092900208958F3C41F4E0
:1030C00047FFF0CF10929502809196028115E0CFD4
:1030D000803D19F41416B4F3E5CF90919702893D21
:1030E00029F41916FCF610929702DCCF8A3D19F4E8
:1030F00097FFD8CFF8CF909198028B3D29F497FF96
:10310000D1CF10929802CECF8C3D19F41916CCF382
:10311000C9CF9FE2980F983090F4815D990B21E020
:1031200030E0B90102C0660F771F8A95E2F7CB0144
:10313000809590919402892380939402B3CF8D3D22
:1031400031F4809192028E7F80939202ABCF8E3DBC
:1031500021F4809192028D7FF7CF8F3D09F0A2CFAD
:10316000809192028B7FF0CF08950E9404202091DD
:10317000950230919602232B211521F080938E0227
:1031800090938F022091970230919802232B211562
:1031900021F080938C0290938D0283E992E00E944B
:1031A000861D089586E0E3E9F2E0DF011D928A952D
:1031B000E9F71092910210929002109292020895F3
:1031C000FC01828181110DC0838181110AC084813B
:1031D000811107C081E09581911101C080E081706B
:1031E000089581E0FCCFA6E0B0E0E9EFF8E10C94AF
:1031F000A72786E0E3E9F2E09E012F5F3F4FD90168
:1032000001900D928A95E1F7109295021092960224
:1032100010929702109298028B819C81892B7901E0
:10322000811589F080918E0290918F020E94931FE8
:103230006C01809191028115B9F190910A019C1560
:103240001D0408F43EC08D819E81892B811591F06B
:1032500080918C0290918D020E94931F8C0180912D
:103260009002811509F45FC0909106019017110634
:1032700008F467C0B70183E992E00E94E01E811163
:1032800005C083E992E00E94E01881110E94B51800
:1032900086E0F701A3E9B2E001900D928A95E1F78B
:1032A0002696E8E00C94C32720910B019AE0299F11
:1032B000900111242C153D0530F68F5F809391020B
:1032C00002C08F3FD1F7DB80D11459F00E947517EF
:1032D00091E01D140CF09FEF899F802D11248093A5
:1032E0009502DC80D11459F00E94751791E01D14ED
:1032F0000CF09FEF899F802D11248093960280917E
:103300009502811509F49FCFD0909602D11409F44B
:103310009ACF0E946717809395028D2D0E946717A0
:103320008093960290CF209107019AE0299F900107
:1033300011242017310708F09DCF8F5F80939002F2
:1033400002C08F3FD1F71D81111559F00E94BB17A4
:1033500091E011160CF09FEF899F802D112480932E
:1033600097021E81111559F00E94BB1791E01116AA
:103370000CF09FEF899F802D1124809398028091FB
:103380009702811509F476CF10919802111509F46E
:1033900071CF0E94671780939702812F0E94671751
:1033A0008093980267CFDC01ED91FC911197849195
:1033B0003196ED93FC930895A0E0B0E0E2EEF9E1E0
:1033C0000C94A627E82FF0E0E158FE4FB490282F88
:1033D00026952695269530E0F901E15EFD4F049192
:1033E000877010E0082E02C0159507950A94E2F741
:1033F00001701127F901E15FFD4FE490F12C082ED7
:1034000002C0F594E7940A94E2F7E0FAEE24FF2470
:10341000E0F8F901E150FE4FC491D0E002C0D5952B
:10342000C7958A95E2F7C170DD27C62ED12C01150C
:10343000110549F5E114F10431F086EE0E94EE0425
:10344000C601009771F5B6018B2D0E946905C60172
:10345000009779F5E114F104A1F50115110531F09A
:1034600081EE0E943605C6010097C9F5CD2B31F0DB
:103470008CE20E948305C114D104C9F5CDB7DEB733
:10348000E9E00C94C22781EE0E94EE04C601009789
:1034900089F2EFE9FFE03197F1F700C000000197F2
:1034A000F6CFEFE9FFE03197F1F700C00000019798
:1034B000C8CFEFE9FFE03197F1F700C000000197B6
:1034C000C7CF86EE0E943605C601009731F2EFE9BC
:1034D000FFE03197F1F700C000000197F6CFEFE968
:1034E000FFE03197F1F700C000000197BDCF8FE9F1
:1034F0009FE00197F1F700C0000091E0C91AD108E0
:10350000BACFA0E0B0E0E7E8FAE10C94A6277C018E
:10351000D62F172F042F8D2F912FF7010995811585
:10352000B9F0813009F060C08D2F912FF701099516
:10353000C82F813091F48D2F912FF70109950E94AA
:103540008305802F90E0009709F046C0C111E3CFBA
:10355000CDB7DEB7E9E00C94C227823039F48D2F65
:10356000912FF70109950E94EE04EBCF833039F4D7
:103570008D2F912FF70109950E943605E2CF8430F7
:1035800001F78D2F912FF7010995C82FC12CD12C50
:103590008AE0B82E2C2F2053330BC9012A30310575
:1035A00068F0C114D10469F28FE99FE00197F1F747
:1035B00000C0000091E0C91AD108F3CFBC9C900173
:1035C000BD9C300D11246C01C20ED31E8D2F912F86
:1035D000F7010995C82FDECFEFE9FFE03197F1F74A
:1035E00000C000000197AFCF602F0E94DC1993CF7D
:1035F000A2E0B0E0EEEFFAE10C94AD27462F9A83FB
:103600008983BE016F5F7F4F83ED99E10E94811A2C
:103610002296E2E00C94C9270F931F93CF93DF9378
:10362000C42FD22FFC0185818115C9F040939B02E4
:103630000E94042090939A028093990280E28C0F5A
:10364000883040F4C77081E001C0880FCA95EAF75E
:103650000E948C05DF91CF911F910F9108951091D9
:103660009B02141333C08091990290919A020E9498
:10367000931F883C910550F5C0E2CD0F1D17C1F096
:1036800080E2810F883040F4177081E001C0880F1C
:103690001A95EAF70E949305C83050F491E08D2FF7
:1036A000877001C0990F8A95EAF7892F0E948C05CF
:1036B000802F0E948305C83068F6D77081E001C072
:1036C000880FDA95EAF70E949305C4CF80E28C0F49
:1036D000883008F0BFCFC77081E001C0880FCA955D
:1036E000EAF7F1CF0F93DB01FC01E851FC47E7302B
:1036F000F10598F5ED56F74D0C94902706E221EE72
:1037000041EE6AE17CE7CD010E940C1B80E00F9145
:10371000089507E225EE45EE6BE17CE7F4CF06E283
:1037200021EE40EE68E17CE7EECF07E225EE44EEC5
:1037300069E17CE7E8CF06E221EE42EE6CE17CE74E
:10374000E2CF07E225EE46EE6DE17CE7DCCF08E252
:1037500021E045EE6EE17CE7D6CF15968C91811184
:1037600010929B0281E0D3CFCF93DF939C01FB01AA
:1037700027378CE7380739F028373C47F1F081E0EC
:10378000DF91CF9108958581811591F00E94E61B0C
:103790000E9457080E94EC1BD82F0E94E91BC82FDB
:1037A0000E94E61B4D2F6C2F0E94970980E0E8CF06
:1037B0000E94E61B0E946308EDCF8581811519F0F8
:1037C0000E94E91BE5CF0E94E91BF4CF80910E0116
:1037D000089580910D01089580910C01089584E26F
:1037E00090E00E94FE27853289F485E290E00E94F5
:1037F000FE27803159F486E290E00E94FE2791E096
:10380000853009F090E0892F8170089580E0FCCF29
:10381000CF93C82F65E2811101C06FEF84E290E081
:103820000E941C2860E1C11101C06FEF85E290E0A9
:103830000E941C2865E0C11101C06FEF86E290E094
:103840000E941C28CF910895089587E290E00E947D
:10385000FE27682F70E080E090E008950895CF93F0
:10386000C62F0E942E1C6C2F87E290E00E941C281D
:10387000CF91089580E00E94081C60E070E0CB01C9
:103880000E942F1C0E944D150E94251681E00E9467
:10389000081C08950E94241C0E94251C0E942E1CB6
:1038A0000E94EF1B811102C00E943A1C08950895E6
:1038B0009C01FB018581811551F0A90157574038C2
:1038C000510530F4822F0E94351680E0089581E082
:1038D00008952FEFFC01208308950E94691C08952C
:1038E00080E00895CF92DF92FF920F931F93CF93C2
:1038F000DF93EC01F62E0E94701C811110C0E8814C
:10390000E150E531E0F4F0E0E656F74D0C949027F5
:1039100019828CE08A836F2DCE010E94AD20DF9149
:10392000CF911F910F91FF90DF90CF9008958981E3
:103930008330F9F038F4813061F0823099F08FEF04
:103940008883E9CF8430D9F71A821B821C821D82BA
:10395000E2CF0E9410200E9496276A837B838C838B
:103960009D83D9CF0E94251C1A821B821C826D83E5
:10397000D2CF0A8110E06E0183E0C80ED11C043062
:1039800011054CF6802F0E947811F60181936F018A
:103990000F5F1F4FF4CF8981823031F0853079F687
:1039A0008A810E94571CB7CF6A817B818C819D815F
:1039B0000E9496270E942F1CAECF4B816A8189817D
:1039C0000E94A4149827892798279D838C83A3CFCE
:1039D0002C813D813227232732274B816A818981BF
:1039E0000E94C61498CF0E944D1595CF6F2DCE0121
:1039F0000E946D1C90CF0E94DD1589838CCF0E94A0
:103A0000DF159827892798279A83898384CF6B812C
:103A100070E089819A81AE014C5F5F4F98278927BA
:103A200098270E94E21577CF6B8170E089819A8197
:103A3000AE014C5F5F4F9827892798270E94041694
:103A40006ACF0E94251667CF0E949214D6CF6B8151
:103A500070E089819A81AE014C5F5F4F982789277A
:103A600098270E94891557CF6B8170E089819A81D0
:103A7000AE014C5F5F4F9827892798270E94A815B1
:103A80004ACF41E08B81811101C040E06A81898188
:103A90000E94E21497CF2C813D81322723273227C1
:103AA00041E08B81811101C040E06A8189810E94DF
:103AB0001B1531CF9093A1028093A0020895E0914D
:103AC000A002F091A102309729F00190F081E02D41
:103AD0000995089580E00895E091A002F091A10277
:103AE000309721F00280F381E02D09950895DC01E3
:103AF000E091A002F091A102309739F086E08C931A
:103B00000480F581E02DCD0109950895DC01E09157
:103B1000A002F091A102309739F082E08C930680E8
:103B2000F781E02DCD0109950895A3E0B0E0EBE920
:103B3000FDE10C94AD279C0180919E0290919F0223
:103B400082179307A1F030939F0220939E02E09189
:103B5000A002F091A102309751F083E089833B836A
:103B60002A830084F185E02DCE01019609952396E4
:103B7000E2E00C94C927A3E0B0E0E1ECFDE10C9495
:103B8000AD279C0180919C0290919D028217930722
:103B9000A1F030939D0220939C02E091A002F0914D
:103BA000A102309751F084E089833B832A8300840B
:103BB000F185E02DCE01019609952396E2E00C9463
:103BC000C927CF93DF93C0910201D09103012296C0
:103BD0000E94521F813081F48091AB0287FF0CC09C
:103BE000C0910001D091010122969EE180E09150A8
:103BF00028F4DF91CF91089596E0F8CF299121150F
:103C0000B1F38F5FF4CFCF93C82F811102C080E052
:103C100031C00E94521F813021F48091AB0287FD98
:103C20000EC08091020190910301FC01329608962A
:103C300021912C1709F1E817F907D1F7E8CF8C2F5C
:103C4000869586958695C03F10F7E0910001F0912A
:103C50000101E80FF11D228130E0C77081E090E0A2
:103C600002C0880F991FCA95E2F72823392381E003
:103C7000232B69F2CF91089581E0FCCF9C01FC01D8
:103C800032968FEF90E04191461751F08F3F19F433
:103C9000411101C0892F9F5F9630A9F78F3F09F42A
:103CA0000895280F311D87FD3A95F9016283089523
:103CB0009C01FC013296285F3F4F8191861302C020
:103CC000DF011E92E217F307C1F70895FC01862F6A
:103CD000869586958695603F60F4E80FF11D6770C4
:103CE00021E030E001C0220F6A95EAF78281822B41
:103CF00082830895FC01862F869586958695603F80
:103D000080F4E80FF11D677081E090E09C0102C033
:103D1000220F331F6A95E2F7B9016095828168230B
:103D200062830895CF93C82F0E94521F6C2F813059
:103D300061F48091AB0287FF08C0809100019091EF
:103D400001010E94661ECF91089580910201909119
:103D500003010E943E1EF7CFCF93C82F0E94521F2F
:103D60006C2F813061F48091AB0287FF08C0809195
:103D70000001909101010E947A1ECF9108958091D7
:103D80000201909103010E94581EF7CF0E94521F1A
:103D9000813079F48091AB0287FF0BC0E091000184
:103DA000F091010132968EE1DF011D928A95E9F7CB
:103DB0000895E0910201F0910301329686E0F4CF7C
:103DC000DC01FB0111969C9111978181981322C00F
:103DD00012968C911297811519F0928189131AC04D
:103DE00013968C911397811519F09381891312C042
:103DF00015968C911597811519F0958189130AC034
:103E000014969C91911521F081E02481291303C01F
:103E100080E001C081E08170089508950E940D1F27
:103E200008958F5F8093120160910F0170911001CE
:103E300080911101909112010E940E1F089583E05C
:103E40008093120160910F01709110018091110116
:103E5000909112010E940E1F08950E94111F089553
:103E600081E08093120160910F01709110018091A7
:103E70001101909112010E940E1F08950E94301F9F
:103E8000089591E0811101C090E09093110160913B
:103E90000F017091100180911101909112010E9407
:103EA0000E1F089580911101089580931001609173
:103EB0000F017091100180911101909112010E94E7
:103EC0000E1F089580911001089580930F01609155
:103ED0000F017091100180911101909112010E94C7
:103EE0000E1F089580910F010895089508950E946E
:103EF000761F0895089508950E94751F0895CF9321
:103F00000E947A1F0E942F120E947B1FC0E08C2FFC
:103F10000E947811811105C0CF5FC430C1F7CF91E5
:103F2000089581E0FCCFCF93DF93EC010E94042041
:103F30008C1B9D0BDF91CF91089585B7806885BF5D
:103F400085B7806885BF08951F921FB61F92112400
:103F50008F939F93AF93BF938091A202811113C05F
:103F60008091B5029091B602A091B702B091B802CB
:103F70004196A11DB11D8093B5029093B602A09306
:103F8000B702B093B802BF91AF919F918F911F90EC
:103F90001FBE1F9018958091BD02843031F10E94A0
:103FA00052041092A20288E190E020E40FB6F89447
:103FB000A895809360000FBE2093600083B7817F37
:103FC000846083BF83B7816083BF7894889583B70B
:103FD0008E7F83BF0FB6F894A895809160008861AA
:103FE00080936000109260000FBE08950E94D90770
:103FF0000E945904089582E084BD93E095BD9AEF34
:1040000097BD80936E0008952FB7F8948091B50204
:104010009091B602A091B702B091B8022FBF089557
:104020002FB7F8946091B5027091B6028091B702F3
:104030009091B8022FBF089578941F921FB61F92D7
:1040400011248F939F93AF93BF938091B50290916A
:10405000B602A091B702B091B8020196A11DB11DA0
:104060008093B5029093B602A093B702B093B802C2
:10407000BF91AF919F918F911F901FBE1F90189578
:1040800087E797E7909301088093000888E19AE01A
:104090000FB6F894A895809360000FBE90936000CF
:1040A000FFCF88E19AE00FB6F894A895809360005E
:1040B0000FBE90936000FFCF282FCB01BA01309143
:1040C000BD023430D9F42F702093E9002FEF3091E6
:1040D000E80035FD06C035ED3A95F1F700002A9568
:1040E000B1F72091E80025FF09C040E050E00E94B0
:1040F000A6228091E8008E778093E8000895BC01A5
:1041000043E050E084E00E945C200895BC0146E05A
:1041100050E084E00E945C200895BC0140E250E041
:1041200084E00E945C200895CF93DF93D82FC92F9D
:104130000E94521F48E050E06D2F7C2F81E00E94CA
:104140005C2088E0ED2FFC2FA3EAB2E001900D92F5
:104150008A95E1F7DF91CF910895792F603231F49C
:1041600040E250E0682F82E00E945C200895A0E2C7
:10417000B0E0EDEBF0E20C94AD278091BD0284300D
:1041800009F583E08093E9008091E80082FF1AC07E
:104190008091E80090E085FF09C040E050E060E2D7
:1041A00070E0CE0101960E94F62291E08091E80035
:1041B0008B778093E800911529F060E2CE0101969B
:1041C0000E94721CA096E2E00C94C9278091BC0268
:1041D000811109C00E947F240E94DC248091E200AA
:1041E00084608093E20008951092BC0208950E94BA
:1041F000301F81E00E94411F08956091B90281E063
:10420000611101C080E00E941F1F08959091BD02BE
:1042100081E0943009F080E06091B9020E942D1F86
:10422000089542E061EC81E00E94FB2342E261ECF0
:1042300084E00E94FB2342E261EC82E00E94FB23C7
:1042400042E260EC83E00E94FB239091BD0281E09A
:10425000943009F080E06091B9020E94111F089526
:104260008091BF02893089F148F4823009F4A1C0FD
:10427000833009F45BC0813041F008958A3009F43D
:1042800088C08B3009F46DC008958091BE02813AD8
:1042900009F04BC08091E800877F8093E80080910F
:1042A000C2029091C302892B61F060E080E090E04F
:1042B00070E00E9446238091E8008B778093E800AD
:1042C000089568E083EA92E0F3CF8091BE028132E4
:1042D00061F58091C2029091C3028D7F892B29F5EF
:1042E0008091E800877F8093E8008091E80082FF5A
:1042F00018C09091F3008091F200029731F4809100
:10430000F100813011F0863021F48091F1000E949B
:10431000551F8091E8008B778093E8000E942F243E
:1043200008958091BD028111E0CF08958091BE0271
:10433000813AD9F78091C2029091C302892BA9F7E3
:104340008091E800877F8093E8008091E80080FFFB
:10435000FCCF0E94521F8093F1008091E8008E777D
:10436000DBCF8091BE02813201F78091C202909131
:10437000C302892BD1F68091E800877F8093E80003
:104380000E942F248091C0020E94411F0E94D907E1
:1043900008958091BE02813241F68091E800877FC6
:1043A0008093E8000E942F248091C1020E94651F23
:1043B00008958091BE02813A09F0B7CF8091E8005C
:1043C000877F8093E8008091E80080FFFCCF0E9407
:1043D000721FC1CF84B7877F84BF0FB6F894A895AA
:1043E00080916000886180936000109260000FBE31
:1043F00080E890E00FB6F89480936100909361009C
:104400000FBE0E943E1F08950E947F240E94DC245C
:10441000E2EEF0E080818460808378940E946227DD
:10442000089583E191E00E945A1D08958091BD0294
:10443000853031F48091BD02853019F00E94F61F5D
:1044400008950E94CB1F0E947F1F811599F38091D0
:10445000BB02811579F30E9490220E94D907EACF0E
:1044600008959A014091C4025091C5020E943922D8
:104470000895FC01AB01D901892F9927833091055B
:10448000C1F068F48130910509F445C0029761F4E8
:104490008BE590E023E732E02D933C930895813241
:1044A0009105E1F0829739F180E090E020E030E082
:1044B000F3CFCF019927E13059F08230910559F0BF
:1044C000EFE6F2E0892B81F7849190E09F01E4CF41
:1044D000EBE4F2E0F9CFEFE2F2E0F6CF6330710502
:1044E00018F7FB01EE0FFF1FE155FE4F20813181D0
:1044F00089E090E0D1CF63307105B0F6FB01EE0F9B
:10450000FF1FE755FE4F208131814A555E4FFA016A
:10451000808190E0C1CF82E190E02EEC32E0BCCF10
:1045200080E189BD82E189BD09B400FEFDCF8091A3
:10453000D8008F7D8093D8008091E00082608093C6
:10454000E0008091E00081FDFCCF0895AF92BF9222
:10455000CF92DF92EF92FF920F931F93CF936C0154
:104560008B017A010E944E24C82F811123C0E114CF
:10457000F10439F0F70180819181081B190BC80EF5
:10458000D91EA12CB12C01151105A1F08091E800D4
:1045900085FD21C08091E8008E778093E800E114CA
:1045A000F10499F0F701808191818A0D9B1D91831F
:1045B0008083C5E08C2FCF911F910F91FF90EF90DA
:1045C000DF90CF90BF90AF9008950E944E24811548
:1045D000E9F2C82FEFCFF60181916F018093F100CE
:1045E00001501109FFEFAF1ABF0ACDCFAF92BF92B2
:1045F000CF92DF92EF92FF920F931F93CF936C01B4
:104600008B017A010E944E24C82F811123C0E1142E
:10461000F10439F0F70180819181081B190BC80E54
:10462000D91EA12CB12C01151105A1F08091E80033
:1046300085FD21C08091E8008B778093E800E1142C
:10464000F10499F0F701808191818A0D9B1D91837E
:104650008083C5E08C2FCF911F910F91FF90EF9039
:10466000DF90CF90BF90AF9008950E944E248115A7
:10467000E9F2C82FEFCF8091F100F60181936F012D
:1046800001501109FFEFAF1ABF0ACDCFFC019B010A
:104690008091C4029091C5028617970718F0672B86
:1046A00061F0C90140E0009771F441110CC08091A4
:1046B000E80082FF35C080E008958091E8008E77A1
:1046C0008093E800EECF2091BD022115A9F125309D
:1046D000A9F12091E80023FD2DC02091E80022FDE2
:1046E000E6CF2091E80020FFDECF3091F30020914B
:1046F000F200009719F02830310558F041E02830D9
:10470000310509F040E02091E8002E772093E80081
:10471000CACF41914093F10001972F5F3F4FE9CFFE
:104720008091BD02811541F0853041F08091E80013
:1047300083FFBDCF81E0089582E0089583E008956E
:10474000FC019B018091C4029091C50286179707D6
:1047500018F0672B61F0C90140E0009771F4411136
:104760000CC08091E80082FF36C080E008958091FF
:10477000E8008E778093E800EECF2091BD022115EE
:10478000B1F12530B1F12091E80023FD2EC0209138
:10479000E80022FDE6CF2091E80020FFDECF309137
:1047A000F3002091F200009719F02830310558F0FD
:1047B00041E02830310509F040E02091E8002E77F3
:1047C0002093E800CACF44914093F10031960197BD
:1047D0002F5F3F4FE8CF8091BD02811541F08530BA
:1047E00041F08091E80083FFBCCF81E0089582E032
:1047F000089583E00895982F973028F08F70809364
:10480000E90081E008959093E900242F762F50E08D
:10481000981731F07091EC002091ED005091F0006C
:1048200021FD02C09F5FE8CF3091EB003E7F3093C7
:10483000EB003091ED003D7F3093ED003091EB00C7
:1048400031603093EB007093EC002093ED005093B7
:10485000F0002091EE0027FDE5CF80E008958091E3
:10486000BE0287FF13C08091E80082FF06C08091DE
:10487000E8008B778093E80008958091BD02811154
:10488000F2CF08958091BD028115D9F38091E8009F
:1048900080FFF8CF8091E8008E77ECCF2091E40084
:1048A0003091E50095E6A9012091EC00822F8170FE
:1048B00020FF06C08091E80080FF06C080E00895D8
:1048C0002091E80022FD1AC08091BD02811589F077
:1048D000853089F08091EB0085FD0FC02091E400C8
:1048E0003091E50042175307F9F29A95E1F684E01A
:1048F000089582E0089583E0089581E008950E947C
:10490000EE240E94F624E0EEF0E080818160808356
:10491000E8EDF0E080818F77808319BCA7EDB0E0EF
:104920008C918E7F8C9380818F7E80831092BC02CD
:1049300008950F931F93CF93DF930E94EE240E945C
:10494000F624C8EDD0E088818F77888388818068DD
:10495000888388818F7D888319BC1092BD02109254
:10496000B9021092BB021092BA0200EE10E0F801F8
:1049700080818B7F808388818160888342E060E0D2
:1049800080E00E94FB23E1EEF0E080818E7F808357
:10499000E2EEF0E0808181608083808188608083A6
:1049A000F80180818E7F8083888180618883DF9198
:1049B000CF911F910F910895E8EDF0E080818F7EF7
:1049C0008083E7EDF0E080818160808384E082BFB6
:1049D00081E08093BC020E9499240895E8EDF0E004
:1049E00080818E7F80831092E20008951092DA0019
:1049F0001092E10008951F920F920FB60F921124AA
:104A00002F933F934F935F936F937F938F939F93D6
:104A1000AF93BF93EF93FF938091E10082FF0BC0B0
:104A20008091E20082FF07C08091E1008B7F80933C
:104A3000E1000E9461278091DA0080FF19C0809117
:104A4000D80080FF15C08091DA008E7F8093DA0055
:104A50008091D90080FF94C080E189BD82E189BD49
:104A600009B400FEFDCF81E08093BD020E94E620E4
:104A70008091E10080FF19C08091E20080FF15C0A5
:104A80008091E2008E7F8093E2008091E20080615D
:104A90008093E2008091D80080628093D80019BC96
:104AA00085E08093BD020E94FD208091E10084FF9B
:104AB00029C08091E20084FF25C080E189BD82E1A8
:104AC00089BD09B400FEFDCF8091D8008F7D809311
:104AD000D8008091E1008F7E8093E1008091E20018
:104AE0008F7E8093E2008091E20081608093E200FB
:104AF0008091B902811509F449C084E08093BD0218
:104B00000E9406218091E10083FF29C08091E2008C
:104B100083FF25C08091E100877F8093E10082E0E0
:104B20008093BD021092B9028091E1008E7F809344
:104B3000E1008091E2008E7F8093E2008091E200AC
:104B400080618093E20042E060E080E00E94FB230D
:104B50008091F00088608093F0000E94F720FF9120
:104B6000EF91BF91AF919F918F917F916F915F91E5
:104B70004F913F912F910F900FBE0F901F9018955E
:104B800019BC1092BD020E94F42072CF8091E30004
:104B900087FF02C083E0B2CF81E0B0CF1F920F92B7
:104BA0000FB60F921124EF92FF920F931F932F9342
:104BB0003F934F935F936F937F938F939F93AF93A5
:104BC000BF93CF93EF93FF9309EE10E0F80180813C
:104BD000C091EC008F70C795CC27C795C82B108269
:104BE00080EFE82EF12CF7018081877F8083789415
:104BF0000E941926F8011082F70180818860808365
:104C0000CF70F801C083FF91EF91CF91BF91AF9129
:104C10009F918F917F916F915F914F913F912F91D4
:104C20001F910F91FF90EF900F900FBE0F901F906C
:104C30001895AAE2B0E0EFE1F6E20C94AB278EEB18
:104C400092E0FC0101962091F100208322E0863C55
:104C50009207B9F70E9430218091E80083FF38C0A5
:104C60008091BE029091BF029A3090F5E92FF0E05A
:104C7000E155F74D0C949027803889F0823841F542
:104C80008091C2028F70873018F58093E90080917F
:104C9000EB0085FB882780F91092E90006C080911F
:104CA000BB02880F9091BA02892B9091E800977F00
:104CB0009093E8008093F1001092F1008091E80059
:104CC0008E7723C0811116C08091C002813011F10E
:104CD0008091E80083FF0AC08091E800877F80937D
:104CE000E8008091EB0080628093EB00AA96E4E0FC
:104CF0000C94C727823061F78091C002811589F03A
:104D00001092E9008091E800877F8093E8000E947C
:104D10002F24DECF81E0933009F080E08093BB0246
:104D2000EFCF8091C2028F702FEF280F263080F6D0
:104D30008093E9002091EB0020FFE2CF933031F423
:104D40008091EB0080628093EB00DACF9091EB00D2
:104D500090619093EB0021E030E0A90102C0440F84
:104D6000551F8A95E2F74093EA001092EA0080917D
:104D7000EB008860E8CF8111ABCF1091C0021F77A4
:104D80008091E3008078812B8093E3008091E8009C
:104D9000877F8093E8000E942F248091E80080FFA5
:104DA000FCCF8091E30080688093E30083E01111E1
:104DB00001C082E08093BD028BCF8058823008F022
:104DC00087CF8091C0029091C1028C3D53E095073E
:104DD00099F583E08A838AE289834FB7F894DE01EC
:104DE000139620E03EE051E2E32FF0E050935700AD
:104DF000849120FF03C082958F703F5F8F708A304F
:104E0000C8F0895C90E08D939D932F5F243161F70A
:104E10004FBF8091E800877F8093E8006AE270E0EE
:104E2000CE0101960E9446238091E8008B77809303
:104E3000E8004ECF805DE6CF6091C2027091C30260
:104E4000AE014F5F5F4F0E9431228C01892B09F424
:104E50003FCF8091E800877F8093E800B801898187
:104E60009A810E94A023E0CF803809F031CF809151
:104E7000E800877F8093E8008091B9028093F10079
:104E80001DCF811125CF9091C002923008F020CF24
:104E90008091E800877F8093E8009093B9020E9498
:104EA0002F248091B902811531F084E08093BD02F6
:104EB0000E9411210DCF8091E30087FDF6CF81E0A4
:104EC000F5CF0895CF938091BD02811599F080911F
:104ED000E900C091EC008F70C795CC27C795C82B0F
:104EE0001092E9008091E80083FD0E941926CF709E
:104EF000C093E900CF91089597FB072E16F4009414
:104F000007D077FD09D00E94D42707FC05D03EF4D6
:104F1000909581959F4F0895709561957F4F089565
:104F2000EE0FFF1F0590F491E02D09946927962755
:104F3000692778278727782708952F923F924F92E5
:104F40005F926F927F928F929F92AF92BF92CF9219
:104F5000DF92EF92FF920F931F93CF93DF93CDB722
:104F6000DEB7CA1BDB0B0FB6F894DEBF0FBECDBF9A
:104F700009942A88398848885F846E847D848C846B
:104F80009B84AA84B984C884DF80EE80FD800C8174
:104F90001B81AA81B981CE0FD11D0FB6F894DEBF57
:104FA0000FBECDBFED010895AA1BBB1B51E107C089
:104FB000AA1FBB1FA617B70710F0A61BB70B881FA9
:104FC000991F5A95A9F780959095BC01CD01089538
:104FD000FB01DC0104C08D910190801921F4415046
:104FE0005040C8F7881B990B0895FB01DC0102C0F3
:104FF00001900D9241505040D8F70895F999FECF95
:1050000092BD81BDF89A992780B50895A8E1B0E0D6
:1050100042E050E00C944228DC01A40FB51F41503F
:10502000504048F0CB01840F951F2E910E941D28FF
:1050300041505040D0F70895262FF999FECF92BDE8
:1050400081BDF89A019700B4021639F01FBA20BD4D
:105050000FB6F894FA9AF99A0FBE08950396272F7F
:105060000E941D280E941C28252F0E941D28242FE5
:105070000C941D280196272F0E941D280C941C2893
:10508000DC01CB01FC01F999FECF06C0F2BDE1BD08
:10509000F89A319600B40D9241505040B8F70895F7
:1050A000F894FFCFD805D8051C061C0680069D067F
:1050B00007060706A206130724072407E616571754
:1050C000EE16B816BC16F216C016F6160217CC1657
:1050D0005017D0160617D4160A172F17D8160E1702
:1050E0003617DE1614171C17C416FA16C816FE1645
:1050F000E216181726173F174E17B216EA165E1754
:10510000FD17031806180C1821182118211821184A
:1051100021182118211821180F18141818181E18F2
:105120002F18351839188F1B951B7E1B891B9B1B4D
:10513000A11BA71B881C971CCB1CDD1CE81CF31CA7
:10514000F61CF61CF61C9F1C9F1CFB1CFF1C071D5D
:10515000141D211D241D271D341D411D4B1D3C26E2
:105160006226682662266826BB26DD266826342746
:025170004127D5
:105172003D025D02280850011E0A140103020100CB
:10518200000100621F94208D2086207F20E200E92A
:1051920000EA00B500B600B700CD008301CC008A5A
:1051A20001920194012102230224022502260227F0
:1051B200022A02B300B4006F0070009F01CB019F6E
:1051C20002A002E200E900EA00B500B600B700CD95
:1051D200008301CC008A019201940121022302245E
:1051E200022502260227022A02B300B4006F0070D1
:1051F200009F01CB019F02A00234353637666790CB
:10520200919200FF0100010000FFFF000001000178
:10521200FF0094C693974422B6B803E002020385C6
:06522200029E02BE020024
:00000001FF
